{
  "contractName": "DPT",
  "abi": [
    {
      "inputs": [],
      "stateMutability": "nonpayable",
      "type": "constructor"
    },
    {
      "anonymous": false,
      "inputs": [
        {
          "indexed": true,
          "internalType": "address",
          "name": "owner",
          "type": "address"
        },
        {
          "indexed": true,
          "internalType": "address",
          "name": "approved",
          "type": "address"
        },
        {
          "indexed": true,
          "internalType": "uint256",
          "name": "tokenId",
          "type": "uint256"
        }
      ],
      "name": "Approval",
      "type": "event"
    },
    {
      "anonymous": false,
      "inputs": [
        {
          "indexed": true,
          "internalType": "address",
          "name": "owner",
          "type": "address"
        },
        {
          "indexed": true,
          "internalType": "address",
          "name": "operator",
          "type": "address"
        },
        {
          "indexed": false,
          "internalType": "bool",
          "name": "approved",
          "type": "bool"
        }
      ],
      "name": "ApprovalForAll",
      "type": "event"
    },
    {
      "anonymous": false,
      "inputs": [
        {
          "indexed": true,
          "internalType": "address",
          "name": "previousOwner",
          "type": "address"
        },
        {
          "indexed": true,
          "internalType": "address",
          "name": "newOwner",
          "type": "address"
        }
      ],
      "name": "OwnershipTransferred",
      "type": "event"
    },
    {
      "anonymous": false,
      "inputs": [
        {
          "indexed": true,
          "internalType": "address",
          "name": "from",
          "type": "address"
        },
        {
          "indexed": true,
          "internalType": "address",
          "name": "to",
          "type": "address"
        },
        {
          "indexed": true,
          "internalType": "uint256",
          "name": "tokenId",
          "type": "uint256"
        }
      ],
      "name": "Transfer",
      "type": "event"
    },
    {
      "inputs": [
        {
          "internalType": "address",
          "name": "to",
          "type": "address"
        },
        {
          "internalType": "uint256",
          "name": "tokenId",
          "type": "uint256"
        }
      ],
      "name": "approve",
      "outputs": [],
      "stateMutability": "nonpayable",
      "type": "function"
    },
    {
      "inputs": [
        {
          "internalType": "address",
          "name": "owner",
          "type": "address"
        }
      ],
      "name": "balanceOf",
      "outputs": [
        {
          "internalType": "uint256",
          "name": "",
          "type": "uint256"
        }
      ],
      "stateMutability": "view",
      "type": "function"
    },
    {
      "inputs": [
        {
          "internalType": "uint256",
          "name": "tokenId",
          "type": "uint256"
        }
      ],
      "name": "getApproved",
      "outputs": [
        {
          "internalType": "address",
          "name": "",
          "type": "address"
        }
      ],
      "stateMutability": "view",
      "type": "function"
    },
    {
      "inputs": [
        {
          "internalType": "address",
          "name": "owner",
          "type": "address"
        },
        {
          "internalType": "address",
          "name": "operator",
          "type": "address"
        }
      ],
      "name": "isApprovedForAll",
      "outputs": [
        {
          "internalType": "bool",
          "name": "",
          "type": "bool"
        }
      ],
      "stateMutability": "view",
      "type": "function"
    },
    {
      "inputs": [],
      "name": "name",
      "outputs": [
        {
          "internalType": "string",
          "name": "",
          "type": "string"
        }
      ],
      "stateMutability": "view",
      "type": "function"
    },
    {
      "inputs": [],
      "name": "owner",
      "outputs": [
        {
          "internalType": "address",
          "name": "",
          "type": "address"
        }
      ],
      "stateMutability": "view",
      "type": "function"
    },
    {
      "inputs": [
        {
          "internalType": "uint256",
          "name": "tokenId",
          "type": "uint256"
        }
      ],
      "name": "ownerOf",
      "outputs": [
        {
          "internalType": "address",
          "name": "",
          "type": "address"
        }
      ],
      "stateMutability": "view",
      "type": "function"
    },
    {
      "inputs": [],
      "name": "renounceOwnership",
      "outputs": [],
      "stateMutability": "nonpayable",
      "type": "function"
    },
    {
      "inputs": [
        {
          "internalType": "address",
          "name": "from",
          "type": "address"
        },
        {
          "internalType": "address",
          "name": "to",
          "type": "address"
        },
        {
          "internalType": "uint256",
          "name": "tokenId",
          "type": "uint256"
        }
      ],
      "name": "safeTransferFrom",
      "outputs": [],
      "stateMutability": "nonpayable",
      "type": "function"
    },
    {
      "inputs": [
        {
          "internalType": "address",
          "name": "from",
          "type": "address"
        },
        {
          "internalType": "address",
          "name": "to",
          "type": "address"
        },
        {
          "internalType": "uint256",
          "name": "tokenId",
          "type": "uint256"
        },
        {
          "internalType": "bytes",
          "name": "_data",
          "type": "bytes"
        }
      ],
      "name": "safeTransferFrom",
      "outputs": [],
      "stateMutability": "nonpayable",
      "type": "function"
    },
    {
      "inputs": [
        {
          "internalType": "address",
          "name": "operator",
          "type": "address"
        },
        {
          "internalType": "bool",
          "name": "approved",
          "type": "bool"
        }
      ],
      "name": "setApprovalForAll",
      "outputs": [],
      "stateMutability": "nonpayable",
      "type": "function"
    },
    {
      "inputs": [
        {
          "internalType": "bytes4",
          "name": "interfaceId",
          "type": "bytes4"
        }
      ],
      "name": "supportsInterface",
      "outputs": [
        {
          "internalType": "bool",
          "name": "",
          "type": "bool"
        }
      ],
      "stateMutability": "view",
      "type": "function"
    },
    {
      "inputs": [],
      "name": "symbol",
      "outputs": [
        {
          "internalType": "string",
          "name": "",
          "type": "string"
        }
      ],
      "stateMutability": "view",
      "type": "function"
    },
    {
      "inputs": [
        {
          "internalType": "address",
          "name": "from",
          "type": "address"
        },
        {
          "internalType": "address",
          "name": "to",
          "type": "address"
        },
        {
          "internalType": "uint256",
          "name": "tokenId",
          "type": "uint256"
        }
      ],
      "name": "transferFrom",
      "outputs": [],
      "stateMutability": "nonpayable",
      "type": "function"
    },
    {
      "inputs": [
        {
          "internalType": "address",
          "name": "newOwner",
          "type": "address"
        }
      ],
      "name": "transferOwnership",
      "outputs": [],
      "stateMutability": "nonpayable",
      "type": "function"
    },
    {
      "inputs": [
        {
          "internalType": "string",
          "name": "sha256_hash",
          "type": "string"
        },
        {
          "internalType": "string",
          "name": "inventor_name",
          "type": "string"
        },
        {
          "internalType": "string",
          "name": "date",
          "type": "string"
        }
      ],
      "name": "filePatent",
      "outputs": [
        {
          "internalType": "uint256",
          "name": "",
          "type": "uint256"
        }
      ],
      "stateMutability": "nonpayable",
      "type": "function"
    },
    {
      "inputs": [],
      "name": "nextToApprove",
      "outputs": [
        {
          "internalType": "uint256",
          "name": "next_patent",
          "type": "uint256"
        }
      ],
      "stateMutability": "view",
      "type": "function"
    },
    {
      "inputs": [
        {
          "internalType": "uint256",
          "name": "tmptokenId",
          "type": "uint256"
        }
      ],
      "name": "approvePatent",
      "outputs": [
        {
          "internalType": "bool",
          "name": "",
          "type": "bool"
        }
      ],
      "stateMutability": "nonpayable",
      "type": "function"
    },
    {
      "inputs": [
        {
          "internalType": "uint256",
          "name": "tmptokenId",
          "type": "uint256"
        }
      ],
      "name": "denyPatent",
      "outputs": [
        {
          "internalType": "bool",
          "name": "",
          "type": "bool"
        }
      ],
      "stateMutability": "nonpayable",
      "type": "function"
    },
    {
      "inputs": [
        {
          "internalType": "uint256",
          "name": "tokenId",
          "type": "uint256"
        }
      ],
      "name": "tokenURI",
      "outputs": [
        {
          "internalType": "string",
          "name": "",
          "type": "string"
        }
      ],
      "stateMutability": "view",
      "type": "function"
    },
    {
      "inputs": [
        {
          "internalType": "uint256",
          "name": "tokenId",
          "type": "uint256"
        }
      ],
      "name": "tokenInventor",
      "outputs": [
        {
          "internalType": "string",
          "name": "",
          "type": "string"
        }
      ],
      "stateMutability": "view",
      "type": "function"
    },
    {
      "inputs": [
        {
          "internalType": "uint256",
          "name": "tokenId",
          "type": "uint256"
        }
      ],
      "name": "tokenDate",
      "outputs": [
        {
          "internalType": "string",
          "name": "",
          "type": "string"
        }
      ],
      "stateMutability": "view",
      "type": "function"
    },
    {
      "inputs": [
        {
          "internalType": "uint256",
          "name": "tokenId",
          "type": "uint256"
        },
        {
          "internalType": "address",
          "name": "new_delegate",
          "type": "address"
        }
      ],
      "name": "currentDelegate",
      "outputs": [
        {
          "internalType": "bool",
          "name": "success",
          "type": "bool"
        }
      ],
      "stateMutability": "nonpayable",
      "type": "function"
    },
    {
      "inputs": [
        {
          "internalType": "uint256",
          "name": "tokenId",
          "type": "uint256"
        }
      ],
      "name": "currentDelegate",
      "outputs": [
        {
          "internalType": "address",
          "name": "delegate",
          "type": "address"
        }
      ],
      "stateMutability": "view",
      "type": "function"
    },
    {
      "inputs": [],
      "name": "owns",
      "outputs": [
        {
          "internalType": "uint256[]",
          "name": "",
          "type": "uint256[]"
        }
      ],
      "stateMutability": "view",
      "type": "function"
    }
  ],
  "bytecode": "0x608060405260006015553480156200001657600080fd5b506040518060400160405280601881526020017f446973747269627574656420506174656e7420546f6b656e00000000000000008152506040518060400160405280600381526020017f445054000000000000000000000000000000000000000000000000000000000081525081600090805190602001906200009b92919062000176565b508060019080519060200190620000b492919062000176565b5050506000620000c96200016e60201b60201c565b905080600660006101000a81548173ffffffffffffffffffffffffffffffffffffffff021916908373ffffffffffffffffffffffffffffffffffffffff1602179055508073ffffffffffffffffffffffffffffffffffffffff16600073ffffffffffffffffffffffffffffffffffffffff167f8be0079c531659141344cd1fd0a4f28419497f9722a3daafe3b4186f6b6457e060405160405180910390a3506200028b565b600033905090565b828054620001849062000226565b90600052602060002090601f016020900481019282620001a85760008555620001f4565b82601f10620001c357805160ff1916838001178555620001f4565b82800160010185558215620001f4579182015b82811115620001f3578251825591602001919060010190620001d6565b5b50905062000203919062000207565b5090565b5b808211156200022257600081600090555060010162000208565b5090565b600060028204905060018216806200023f57607f821691505b602082108114156200025657620002556200025c565b5b50919050565b7f4e487b7100000000000000000000000000000000000000000000000000000000600052602260045260246000fd5b613b0d806200029b6000396000f3fe608060405234801561001057600080fd5b50600436106101735760003560e01c80636352211e116100de578063a6c0958b11610097578063cec1b71011610071578063cec1b71014610496578063d97565a8146104b4578063e985e9c5146104e4578063f2fde38b1461051457610173565b8063a6c0958b1461041a578063b88d4fde1461044a578063c87b56dd1461046657610173565b80636352211e1461035857806370a0823114610388578063715018a6146103b85780638da5cb5b146103c257806395d89b41146103e0578063a22cb465146103fe57610173565b8063369aea4511610130578063369aea451461024c5780633ad6f6c11461027c57806342842e0e146102ac5780634a3ac0b8146102c8578063589a5e5b146102f8578063593acc471461032857610173565b806301ffc9a71461017857806306fdde03146101a8578063081812fc146101c6578063095ea7b3146101f65780631d397abf1461021257806323b872dd14610230575b600080fd5b610192600480360381019061018d9190612b1e565b610530565b60405161019f9190613049565b60405180910390f35b6101b0610612565b6040516101bd9190613064565b60405180910390f35b6101e060048036038101906101db9190612c07565b6106a4565b6040516101ed9190612fc0565b60405180910390f35b610210600480360381019061020b9190612ae2565b610729565b005b61021a610841565b6040516102279190613286565b60405180910390f35b61024a600480360381019061024591906129dc565b610919565b005b61026660048036038101906102619190612c07565b610979565b6040516102739190613049565b60405180910390f35b61029660048036038101906102919190612b70565b610a4a565b6040516102a39190613286565b60405180910390f35b6102c660048036038101906102c191906129dc565b610da8565b005b6102e260048036038101906102dd9190612c30565b610dc8565b6040516102ef9190613049565b60405180910390f35b610312600480360381019061030d9190612c07565b610eb4565b60405161031f9190613049565b60405180910390f35b610342600480360381019061033d9190612c07565b6111be565b60405161034f9190613064565b60405180910390f35b610372600480360381019061036d9190612c07565b6112ab565b60405161037f9190612fc0565b60405180910390f35b6103a2600480360381019061039d9190612977565b61135d565b6040516103af9190613286565b60405180910390f35b6103c0611415565b005b6103ca611552565b6040516103d79190612fc0565b60405180910390f35b6103e861157c565b6040516103f59190613064565b60405180910390f35b61041860048036038101906104139190612aa6565b61160e565b005b610434600480360381019061042f9190612c07565b61178f565b6040516104419190612fc0565b60405180910390f35b610464600480360381019061045f9190612a2b565b611814565b005b610480600480360381019061047b9190612c07565b611876565b60405161048d9190613064565b60405180910390f35b61049e611963565b6040516104ab9190613027565b60405180910390f35b6104ce60048036038101906104c99190612c07565b611b13565b6040516104db9190613064565b60405180910390f35b6104fe60048036038101906104f991906129a0565b611c00565b60405161050b9190613049565b60405180910390f35b61052e60048036038101906105299190612977565b611c94565b005b60007f80ac58cd000000000000000000000000000000000000000000000000000000007bffffffffffffffffffffffffffffffffffffffffffffffffffffffff1916827bffffffffffffffffffffffffffffffffffffffffffffffffffffffff191614806105fb57507f5b5e139f000000000000000000000000000000000000000000000000000000007bffffffffffffffffffffffffffffffffffffffffffffffffffffffff1916827bffffffffffffffffffffffffffffffffffffffffffffffffffffffff1916145b8061060b575061060a82611e40565b5b9050919050565b606060008054610621906134d9565b80601f016020809104026020016040519081016040528092919081815260200182805461064d906134d9565b801561069a5780601f1061066f5761010080835404028352916020019161069a565b820191906000526020600020905b81548152906001019060200180831161067d57829003601f168201915b5050505050905090565b60006106af82611eaa565b6106ee576040517f08c379a00000000000000000000000000000000000000000000000000000000081526004016106e5906131c6565b60405180910390fd5b6004600083815260200190815260200160002060009054906101000a900473ffffffffffffffffffffffffffffffffffffffff169050919050565b6000610734826112ab565b90508073ffffffffffffffffffffffffffffffffffffffff168373ffffffffffffffffffffffffffffffffffffffff1614156107a5576040517f08c379a000000000000000000000000000000000000000000000000000000000815260040161079c90613246565b60405180910390fd5b8073ffffffffffffffffffffffffffffffffffffffff166107c4611f16565b73ffffffffffffffffffffffffffffffffffffffff1614806107f357506107f2816107ed611f16565b611c00565b5b610832576040517f08c379a000000000000000000000000000000000000000000000000000000000815260040161082990613146565b60405180910390fd5b61083c8383611f1e565b505050565b6000806000905060006108546008611fd7565b9050600291505b80821161090f573373ffffffffffffffffffffffffffffffffffffffff16600d600084815260200190815260200160002060009054906101000a900473ffffffffffffffffffffffffffffffffffffffff1673ffffffffffffffffffffffffffffffffffffffff161480156108ed5750600e600083815260200190815260200160002060009054906101000a900460ff165b156108fc578192505050610916565b81806109079061353c565b92505061085b565b6000925050505b90565b61092a610924611f16565b82611fe5565b610969576040517f08c379a000000000000000000000000000000000000000000000000000000000815260040161096090613266565b60405180910390fd5b6109748383836120c3565b505050565b60003373ffffffffffffffffffffffffffffffffffffffff16600d600084815260200190815260200160002060009054906101000a900473ffffffffffffffffffffffffffffffffffffffff1673ffffffffffffffffffffffffffffffffffffffff16148015610a065750600e600083815260200190815260200160002060009054906101000a900460ff165b15610a40576000600e600084815260200190815260200160002060006101000a81548160ff02191690831515021790555060019050610a45565b600090505b919050565b6000610a56600861231f565b6000610a626008611fd7565b905084600960008381526020019081526020016000209080519060200190610a8b92919061270e565b5083600a60008381526020019081526020016000209080519060200190610ab392919061270e565b5082600b60008381526020019081526020016000209080519060200190610adb92919061270e565b5033600c600083815260200190815260200160002060006101000a81548173ffffffffffffffffffffffffffffffffffffffff021916908373ffffffffffffffffffffffffffffffffffffffff1602179055506001811415610cea57610b41600761231f565b610b4b3382612335565b84600f60008381526020019081526020016000209080519060200190610b7292919061270e565b5083601060008381526020019081526020016000209080519060200190610b9a92919061270e565b5082601160008381526020019081526020016000209080519060200190610bc292919061270e565b50336012600083815260200190815260200160002060006101000a81548173ffffffffffffffffffffffffffffffffffffffff021916908373ffffffffffffffffffffffffffffffffffffffff160217905550336013600083815260200190815260200160002060006101000a81548173ffffffffffffffffffffffffffffffffffffffff021916908373ffffffffffffffffffffffffffffffffffffffff160217905550336014600083815260200190815260200160002060006101000a81548173ffffffffffffffffffffffffffffffffffffffff021916908373ffffffffffffffffffffffffffffffffffffffff1602179055506000600e600083815260200190815260200160002060006101000a81548160ff021916908315150217905550610d9d565b601460006001815260200190815260200160002060009054906101000a900473ffffffffffffffffffffffffffffffffffffffff16600d600083815260200190815260200160002060006101000a81548173ffffffffffffffffffffffffffffffffffffffff021916908373ffffffffffffffffffffffffffffffffffffffff1602179055506001600e600083815260200190815260200160002060006101000a81548160ff0219169083151502179055505b809150509392505050565b610dc383838360405180602001604052806000815250611814565b505050565b6000610dd383611eaa565b610e12576040517f08c379a0000000000000000000000000000000000000000000000000000000008152600401610e0990613226565b60405180910390fd5b3373ffffffffffffffffffffffffffffffffffffffff16610e32846112ab565b73ffffffffffffffffffffffffffffffffffffffff161415610ea957816014600085815260200190815260200160002060006101000a81548173ffffffffffffffffffffffffffffffffffffffff021916908373ffffffffffffffffffffffffffffffffffffffff16021790555060019050610eae565b600090505b92915050565b60003373ffffffffffffffffffffffffffffffffffffffff16600d600084815260200190815260200160002060009054906101000a900473ffffffffffffffffffffffffffffffffffffffff1673ffffffffffffffffffffffffffffffffffffffff16148015610f415750600e600083815260200190815260200160002060009054906101000a900460ff165b156111b457610f50600761231f565b6000610f5c6007611fd7565b9050610f9b600c600085815260200190815260200160002060009054906101000a900473ffffffffffffffffffffffffffffffffffffffff1682612335565b60096000848152602001908152602001600020600f6000838152602001908152602001600020908054610fcd906134d9565b610fd8929190612794565b50600a60008481526020019081526020016000206010600083815260200190815260200160002090805461100b906134d9565b611016929190612794565b50600b600084815260200190815260200160002060116000838152602001908152602001600020908054611049906134d9565b611054929190612794565b50600c600084815260200190815260200160002060009054906101000a900473ffffffffffffffffffffffffffffffffffffffff166012600083815260200190815260200160002060006101000a81548173ffffffffffffffffffffffffffffffffffffffff021916908373ffffffffffffffffffffffffffffffffffffffff160217905550336013600083815260200190815260200160002060006101000a81548173ffffffffffffffffffffffffffffffffffffffff021916908373ffffffffffffffffffffffffffffffffffffffff160217905550336014600083815260200190815260200160002060006101000a81548173ffffffffffffffffffffffffffffffffffffffff021916908373ffffffffffffffffffffffffffffffffffffffff1602179055506000600e600085815260200190815260200160002060006101000a81548160ff02191690831515021790555060019150506111b9565b600090505b919050565b60606111c982611eaa565b611208576040517f08c379a00000000000000000000000000000000000000000000000000000000081526004016111ff90613226565b60405180910390fd5b601060008381526020019081526020016000208054611226906134d9565b80601f0160208091040260200160405190810160405280929190818152602001828054611252906134d9565b801561129f5780601f106112745761010080835404028352916020019161129f565b820191906000526020600020905b81548152906001019060200180831161128257829003601f168201915b50505050509050919050565b6000806002600084815260200190815260200160002060009054906101000a900473ffffffffffffffffffffffffffffffffffffffff169050600073ffffffffffffffffffffffffffffffffffffffff168173ffffffffffffffffffffffffffffffffffffffff161415611354576040517f08c379a000000000000000000000000000000000000000000000000000000000815260040161134b90613186565b60405180910390fd5b80915050919050565b60008073ffffffffffffffffffffffffffffffffffffffff168273ffffffffffffffffffffffffffffffffffffffff1614156113ce576040517f08c379a00000000000000000000000000000000000000000000000000000000081526004016113c590613166565b60405180910390fd5b600360008373ffffffffffffffffffffffffffffffffffffffff1673ffffffffffffffffffffffffffffffffffffffff168152602001908152602001600020549050919050565b61141d611f16565b73ffffffffffffffffffffffffffffffffffffffff1661143b611552565b73ffffffffffffffffffffffffffffffffffffffff1614611491576040517f08c379a0000000000000000000000000000000000000000000000000000000008152600401611488906131e6565b60405180910390fd5b600073ffffffffffffffffffffffffffffffffffffffff16600660009054906101000a900473ffffffffffffffffffffffffffffffffffffffff1673ffffffffffffffffffffffffffffffffffffffff167f8be0079c531659141344cd1fd0a4f28419497f9722a3daafe3b4186f6b6457e060405160405180910390a36000600660006101000a81548173ffffffffffffffffffffffffffffffffffffffff021916908373ffffffffffffffffffffffffffffffffffffffff160217905550565b6000600660009054906101000a900473ffffffffffffffffffffffffffffffffffffffff16905090565b60606001805461158b906134d9565b80601f01602080910402602001604051908101604052809291908181526020018280546115b7906134d9565b80156116045780601f106115d957610100808354040283529160200191611604565b820191906000526020600020905b8154815290600101906020018083116115e757829003601f168201915b5050505050905090565b611616611f16565b73ffffffffffffffffffffffffffffffffffffffff168273ffffffffffffffffffffffffffffffffffffffff161415611684576040517f08c379a000000000000000000000000000000000000000000000000000000000815260040161167b90613106565b60405180910390fd5b8060056000611691611f16565b73ffffffffffffffffffffffffffffffffffffffff1673ffffffffffffffffffffffffffffffffffffffff16815260200190815260200160002060008473ffffffffffffffffffffffffffffffffffffffff1673ffffffffffffffffffffffffffffffffffffffff16815260200190815260200160002060006101000a81548160ff0219169083151502179055508173ffffffffffffffffffffffffffffffffffffffff1661173e611f16565b73ffffffffffffffffffffffffffffffffffffffff167f17307eab39ab6107e8899845ad3d59bd9653f200f220920489ca2b5937696c31836040516117839190613049565b60405180910390a35050565b600061179a82611eaa565b6117d9576040517f08c379a00000000000000000000000000000000000000000000000000000000081526004016117d090613226565b60405180910390fd5b6014600083815260200190815260200160002060009054906101000a900473ffffffffffffffffffffffffffffffffffffffff169050919050565b61182561181f611f16565b83611fe5565b611864576040517f08c379a000000000000000000000000000000000000000000000000000000000815260040161185b90613266565b60405180910390fd5b61187084848484612503565b50505050565b606061188182611eaa565b6118c0576040517f08c379a00000000000000000000000000000000000000000000000000000000081526004016118b790613226565b60405180910390fd5b600f600083815260200190815260200160002080546118de906134d9565b80601f016020809104026020016040519081016040528092919081815260200182805461190a906134d9565b80156119575780601f1061192c57610100808354040283529160200191611957565b820191906000526020600020905b81548152906001019060200180831161193a57829003601f168201915b50505050509050919050565b60606000806001905060006119786007611fd7565b9050600191505b8082116119e4573373ffffffffffffffffffffffffffffffffffffffff166119a6836112ab565b73ffffffffffffffffffffffffffffffffffffffff1614156119d15782806119cd9061353c565b9350505b81806119dc9061353c565b92505061197f565b60008367ffffffffffffffff811115611a26577f4e487b7100000000000000000000000000000000000000000000000000000000600052604160045260246000fd5b604051908082528060200260200182016040528015611a545781602001602082028036833780820191505090505b50905060009350600192505b818311611b09573373ffffffffffffffffffffffffffffffffffffffff16611a87846112ab565b73ffffffffffffffffffffffffffffffffffffffff161415611af65782818580611ab09061353c565b965081518110611ae9577f4e487b7100000000000000000000000000000000000000000000000000000000600052603260045260246000fd5b6020026020010181815250505b8280611b019061353c565b935050611a60565b8094505050505090565b6060611b1e82611eaa565b611b5d576040517f08c379a0000000000000000000000000000000000000000000000000000000008152600401611b5490613226565b60405180910390fd5b601160008381526020019081526020016000208054611b7b906134d9565b80601f0160208091040260200160405190810160405280929190818152602001828054611ba7906134d9565b8015611bf45780601f10611bc957610100808354040283529160200191611bf4565b820191906000526020600020905b815481529060010190602001808311611bd757829003601f168201915b50505050509050919050565b6000600560008473ffffffffffffffffffffffffffffffffffffffff1673ffffffffffffffffffffffffffffffffffffffff16815260200190815260200160002060008373ffffffffffffffffffffffffffffffffffffffff1673ffffffffffffffffffffffffffffffffffffffff16815260200190815260200160002060009054906101000a900460ff16905092915050565b611c9c611f16565b73ffffffffffffffffffffffffffffffffffffffff16611cba611552565b73ffffffffffffffffffffffffffffffffffffffff1614611d10576040517f08c379a0000000000000000000000000000000000000000000000000000000008152600401611d07906131e6565b60405180910390fd5b600073ffffffffffffffffffffffffffffffffffffffff168173ffffffffffffffffffffffffffffffffffffffff161415611d80576040517f08c379a0000000000000000000000000000000000000000000000000000000008152600401611d77906130a6565b60405180910390fd5b8073ffffffffffffffffffffffffffffffffffffffff16600660009054906101000a900473ffffffffffffffffffffffffffffffffffffffff1673ffffffffffffffffffffffffffffffffffffffff167f8be0079c531659141344cd1fd0a4f28419497f9722a3daafe3b4186f6b6457e060405160405180910390a380600660006101000a81548173ffffffffffffffffffffffffffffffffffffffff021916908373ffffffffffffffffffffffffffffffffffffffff16021790555050565b60007f01ffc9a7000000000000000000000000000000000000000000000000000000007bffffffffffffffffffffffffffffffffffffffffffffffffffffffff1916827bffffffffffffffffffffffffffffffffffffffffffffffffffffffff1916149050919050565b60008073ffffffffffffffffffffffffffffffffffffffff166002600084815260200190815260200160002060009054906101000a900473ffffffffffffffffffffffffffffffffffffffff1673ffffffffffffffffffffffffffffffffffffffff1614159050919050565b600033905090565b816004600083815260200190815260200160002060006101000a81548173ffffffffffffffffffffffffffffffffffffffff021916908373ffffffffffffffffffffffffffffffffffffffff160217905550808273ffffffffffffffffffffffffffffffffffffffff16611f91836112ab565b73ffffffffffffffffffffffffffffffffffffffff167f8c5be1e5ebec7d5bd14f71427d1e84f3dd0314c0f7b2291e5b200ac8c7c3b92560405160405180910390a45050565b600081600001549050919050565b6000611ff082611eaa565b61202f576040517f08c379a000000000000000000000000000000000000000000000000000000000815260040161202690613126565b60405180910390fd5b600061203a836112ab565b90508073ffffffffffffffffffffffffffffffffffffffff168473ffffffffffffffffffffffffffffffffffffffff1614806120a957508373ffffffffffffffffffffffffffffffffffffffff16612091846106a4565b73ffffffffffffffffffffffffffffffffffffffff16145b806120ba57506120b98185611c00565b5b91505092915050565b8273ffffffffffffffffffffffffffffffffffffffff166120e3826112ab565b73ffffffffffffffffffffffffffffffffffffffff1614612139576040517f08c379a000000000000000000000000000000000000000000000000000000000815260040161213090613206565b60405180910390fd5b600073ffffffffffffffffffffffffffffffffffffffff168273ffffffffffffffffffffffffffffffffffffffff1614156121a9576040517f08c379a00000000000000000000000000000000000000000000000000000000081526004016121a0906130e6565b60405180910390fd5b6121b483838361255f565b6121bf600082611f1e565b6001600360008573ffffffffffffffffffffffffffffffffffffffff1673ffffffffffffffffffffffffffffffffffffffff168152602001908152602001600020600082825461220f91906133ef565b925050819055506001600360008473ffffffffffffffffffffffffffffffffffffffff1673ffffffffffffffffffffffffffffffffffffffff16815260200190815260200160002060008282546122669190613399565b92505081905550816002600083815260200190815260200160002060006101000a81548173ffffffffffffffffffffffffffffffffffffffff021916908373ffffffffffffffffffffffffffffffffffffffff160217905550808273ffffffffffffffffffffffffffffffffffffffff168473ffffffffffffffffffffffffffffffffffffffff167fddf252ad1be2c89b69c2b068fc378daa952ba7f163c4a11628f55a4df523b3ef60405160405180910390a4505050565b6001816000016000828254019250508190555050565b600073ffffffffffffffffffffffffffffffffffffffff168273ffffffffffffffffffffffffffffffffffffffff1614156123a5576040517f08c379a000000000000000000000000000000000000000000000000000000000815260040161239c906131a6565b60405180910390fd5b6123ae81611eaa565b156123ee576040517f08c379a00000000000000000000000000000000000000000000000000000000081526004016123e5906130c6565b60405180910390fd5b6123fa6000838361255f565b6001600360008473ffffffffffffffffffffffffffffffffffffffff1673ffffffffffffffffffffffffffffffffffffffff168152602001908152602001600020600082825461244a9190613399565b92505081905550816002600083815260200190815260200160002060006101000a81548173ffffffffffffffffffffffffffffffffffffffff021916908373ffffffffffffffffffffffffffffffffffffffff160217905550808273ffffffffffffffffffffffffffffffffffffffff16600073ffffffffffffffffffffffffffffffffffffffff167fddf252ad1be2c89b69c2b068fc378daa952ba7f163c4a11628f55a4df523b3ef60405160405180910390a45050565b61250e8484846120c3565b61251a84848484612564565b612559576040517f08c379a000000000000000000000000000000000000000000000000000000000815260040161255090613086565b60405180910390fd5b50505050565b505050565b60006125858473ffffffffffffffffffffffffffffffffffffffff166126fb565b156126ee578373ffffffffffffffffffffffffffffffffffffffff1663150b7a026125ae611f16565b8786866040518563ffffffff1660e01b81526004016125d09493929190612fdb565b602060405180830381600087803b1580156125ea57600080fd5b505af192505050801561261b57506040513d601f19601f820116820180604052508101906126189190612b47565b60015b61269e573d806000811461264b576040519150601f19603f3d011682016040523d82523d6000602084013e612650565b606091505b50600081511415612696576040517f08c379a000000000000000000000000000000000000000000000000000000000815260040161268d90613086565b60405180910390fd5b805181602001fd5b63150b7a0260e01b7bffffffffffffffffffffffffffffffffffffffffffffffffffffffff1916817bffffffffffffffffffffffffffffffffffffffffffffffffffffffff1916149150506126f3565b600190505b949350505050565b600080823b905060008111915050919050565b82805461271a906134d9565b90600052602060002090601f01602090048101928261273c5760008555612783565b82601f1061275557805160ff1916838001178555612783565b82800160010185558215612783579182015b82811115612782578251825591602001919060010190612767565b5b5090506127909190612821565b5090565b8280546127a0906134d9565b90600052602060002090601f0160209004810192826127c25760008555612810565b82601f106127d35780548555612810565b8280016001018555821561281057600052602060002091601f016020900482015b8281111561280f5782548255916001019190600101906127f4565b5b50905061281d9190612821565b5090565b5b8082111561283a576000816000905550600101612822565b5090565b600061285161284c846132c6565b6132a1565b90508281526020810184848401111561286957600080fd5b612874848285613497565b509392505050565b600061288f61288a846132f7565b6132a1565b9050828152602081018484840111156128a757600080fd5b6128b2848285613497565b509392505050565b6000813590506128c981613a7b565b92915050565b6000813590506128de81613a92565b92915050565b6000813590506128f381613aa9565b92915050565b60008151905061290881613aa9565b92915050565b600082601f83011261291f57600080fd5b813561292f84826020860161283e565b91505092915050565b600082601f83011261294957600080fd5b813561295984826020860161287c565b91505092915050565b60008135905061297181613ac0565b92915050565b60006020828403121561298957600080fd5b6000612997848285016128ba565b91505092915050565b600080604083850312156129b357600080fd5b60006129c1858286016128ba565b92505060206129d2858286016128ba565b9150509250929050565b6000806000606084860312156129f157600080fd5b60006129ff868287016128ba565b9350506020612a10868287016128ba565b9250506040612a2186828701612962565b9150509250925092565b60008060008060808587031215612a4157600080fd5b6000612a4f878288016128ba565b9450506020612a60878288016128ba565b9350506040612a7187828801612962565b925050606085013567ffffffffffffffff811115612a8e57600080fd5b612a9a8782880161290e565b91505092959194509250565b60008060408385031215612ab957600080fd5b6000612ac7858286016128ba565b9250506020612ad8858286016128cf565b9150509250929050565b60008060408385031215612af557600080fd5b6000612b03858286016128ba565b9250506020612b1485828601612962565b9150509250929050565b600060208284031215612b3057600080fd5b6000612b3e848285016128e4565b91505092915050565b600060208284031215612b5957600080fd5b6000612b67848285016128f9565b91505092915050565b600080600060608486031215612b8557600080fd5b600084013567ffffffffffffffff811115612b9f57600080fd5b612bab86828701612938565b935050602084013567ffffffffffffffff811115612bc857600080fd5b612bd486828701612938565b925050604084013567ffffffffffffffff811115612bf157600080fd5b612bfd86828701612938565b9150509250925092565b600060208284031215612c1957600080fd5b6000612c2784828501612962565b91505092915050565b60008060408385031215612c4357600080fd5b6000612c5185828601612962565b9250506020612c62858286016128ba565b9150509250929050565b6000612c788383612fa2565b60208301905092915050565b612c8d81613423565b82525050565b6000612c9e82613338565b612ca88185613366565b9350612cb383613328565b8060005b83811015612ce4578151612ccb8882612c6c565b9750612cd683613359565b925050600181019050612cb7565b5085935050505092915050565b612cfa81613435565b82525050565b6000612d0b82613343565b612d158185613377565b9350612d258185602086016134a6565b612d2e81613612565b840191505092915050565b6000612d448261334e565b612d4e8185613388565b9350612d5e8185602086016134a6565b612d6781613612565b840191505092915050565b6000612d7f603283613388565b9150612d8a82613623565b604082019050919050565b6000612da2602683613388565b9150612dad82613672565b604082019050919050565b6000612dc5601c83613388565b9150612dd0826136c1565b602082019050919050565b6000612de8602483613388565b9150612df3826136ea565b604082019050919050565b6000612e0b601983613388565b9150612e1682613739565b602082019050919050565b6000612e2e602c83613388565b9150612e3982613762565b604082019050919050565b6000612e51603883613388565b9150612e5c826137b1565b604082019050919050565b6000612e74602a83613388565b9150612e7f82613800565b604082019050919050565b6000612e97602983613388565b9150612ea28261384f565b604082019050919050565b6000612eba602083613388565b9150612ec58261389e565b602082019050919050565b6000612edd602c83613388565b9150612ee8826138c7565b604082019050919050565b6000612f00602083613388565b9150612f0b82613916565b602082019050919050565b6000612f23602983613388565b9150612f2e8261393f565b604082019050919050565b6000612f46602f83613388565b9150612f518261398e565b604082019050919050565b6000612f69602183613388565b9150612f74826139dd565b604082019050919050565b6000612f8c603183613388565b9150612f9782613a2c565b604082019050919050565b612fab8161348d565b82525050565b612fba8161348d565b82525050565b6000602082019050612fd56000830184612c84565b92915050565b6000608082019050612ff06000830187612c84565b612ffd6020830186612c84565b61300a6040830185612fb1565b818103606083015261301c8184612d00565b905095945050505050565b600060208201905081810360008301526130418184612c93565b905092915050565b600060208201905061305e6000830184612cf1565b92915050565b6000602082019050818103600083015261307e8184612d39565b905092915050565b6000602082019050818103600083015261309f81612d72565b9050919050565b600060208201905081810360008301526130bf81612d95565b9050919050565b600060208201905081810360008301526130df81612db8565b9050919050565b600060208201905081810360008301526130ff81612ddb565b9050919050565b6000602082019050818103600083015261311f81612dfe565b9050919050565b6000602082019050818103600083015261313f81612e21565b9050919050565b6000602082019050818103600083015261315f81612e44565b9050919050565b6000602082019050818103600083015261317f81612e67565b9050919050565b6000602082019050818103600083015261319f81612e8a565b9050919050565b600060208201905081810360008301526131bf81612ead565b9050919050565b600060208201905081810360008301526131df81612ed0565b9050919050565b600060208201905081810360008301526131ff81612ef3565b9050919050565b6000602082019050818103600083015261321f81612f16565b9050919050565b6000602082019050818103600083015261323f81612f39565b9050919050565b6000602082019050818103600083015261325f81612f5c565b9050919050565b6000602082019050818103600083015261327f81612f7f565b9050919050565b600060208201905061329b6000830184612fb1565b92915050565b60006132ab6132bc565b90506132b7828261350b565b919050565b6000604051905090565b600067ffffffffffffffff8211156132e1576132e06135e3565b5b6132ea82613612565b9050602081019050919050565b600067ffffffffffffffff821115613312576133116135e3565b5b61331b82613612565b9050602081019050919050565b6000819050602082019050919050565b600081519050919050565b600081519050919050565b600081519050919050565b6000602082019050919050565b600082825260208201905092915050565b600082825260208201905092915050565b600082825260208201905092915050565b60006133a48261348d565b91506133af8361348d565b9250827fffffffffffffffffffffffffffffffffffffffffffffffffffffffffffffffff038211156133e4576133e3613585565b5b828201905092915050565b60006133fa8261348d565b91506134058361348d565b92508282101561341857613417613585565b5b828203905092915050565b600061342e8261346d565b9050919050565b60008115159050919050565b60007fffffffff0000000000000000000000000000000000000000000000000000000082169050919050565b600073ffffffffffffffffffffffffffffffffffffffff82169050919050565b6000819050919050565b82818337600083830152505050565b60005b838110156134c45780820151818401526020810190506134a9565b838111156134d3576000848401525b50505050565b600060028204905060018216806134f157607f821691505b60208210811415613505576135046135b4565b5b50919050565b61351482613612565b810181811067ffffffffffffffff82111715613533576135326135e3565b5b80604052505050565b60006135478261348d565b91507fffffffffffffffffffffffffffffffffffffffffffffffffffffffffffffffff82141561357a57613579613585565b5b600182019050919050565b7f4e487b7100000000000000000000000000000000000000000000000000000000600052601160045260246000fd5b7f4e487b7100000000000000000000000000000000000000000000000000000000600052602260045260246000fd5b7f4e487b7100000000000000000000000000000000000000000000000000000000600052604160045260246000fd5b6000601f19601f8301169050919050565b7f4552433732313a207472616e7366657220746f206e6f6e20455243373231526560008201527f63656976657220696d706c656d656e7465720000000000000000000000000000602082015250565b7f4f776e61626c653a206e6577206f776e657220697320746865207a65726f206160008201527f6464726573730000000000000000000000000000000000000000000000000000602082015250565b7f4552433732313a20746f6b656e20616c7265616479206d696e74656400000000600082015250565b7f4552433732313a207472616e7366657220746f20746865207a65726f2061646460008201527f7265737300000000000000000000000000000000000000000000000000000000602082015250565b7f4552433732313a20617070726f766520746f2063616c6c657200000000000000600082015250565b7f4552433732313a206f70657261746f7220717565727920666f72206e6f6e657860008201527f697374656e7420746f6b656e0000000000000000000000000000000000000000602082015250565b7f4552433732313a20617070726f76652063616c6c6572206973206e6f74206f7760008201527f6e6572206e6f7220617070726f76656420666f7220616c6c0000000000000000602082015250565b7f4552433732313a2062616c616e636520717565727920666f7220746865207a6560008201527f726f206164647265737300000000000000000000000000000000000000000000602082015250565b7f4552433732313a206f776e657220717565727920666f72206e6f6e657869737460008201527f656e7420746f6b656e0000000000000000000000000000000000000000000000602082015250565b7f4552433732313a206d696e7420746f20746865207a65726f2061646472657373600082015250565b7f4552433732313a20617070726f76656420717565727920666f72206e6f6e657860008201527f697374656e7420746f6b656e0000000000000000000000000000000000000000602082015250565b7f4f776e61626c653a2063616c6c6572206973206e6f7420746865206f776e6572600082015250565b7f4552433732313a207472616e73666572206f6620746f6b656e2074686174206960008201527f73206e6f74206f776e0000000000000000000000000000000000000000000000602082015250565b7f4552433732314d657461646174613a2055524920717565727920666f72206e6f60008201527f6e6578697374656e7420746f6b656e0000000000000000000000000000000000602082015250565b7f4552433732313a20617070726f76616c20746f2063757272656e74206f776e6560008201527f7200000000000000000000000000000000000000000000000000000000000000602082015250565b7f4552433732313a207472616e736665722063616c6c6572206973206e6f74206f60008201527f776e6572206e6f7220617070726f766564000000000000000000000000000000602082015250565b613a8481613423565b8114613a8f57600080fd5b50565b613a9b81613435565b8114613aa657600080fd5b50565b613ab281613441565b8114613abd57600080fd5b50565b613ac98161348d565b8114613ad457600080fd5b5056fea264697066735822122059360bc71729749ed916d7214d1f3baab40fa4b781dc6e89ebd678c7962c970764736f6c63430008040033",
  "immutableReferences": {},
  "source": "// SPDX-License-Identifier: MIT\r\npragma solidity ^0.8.0;\r\n\r\nimport \"@openzeppelin/contracts/token/ERC721/ERC721.sol\";\r\nimport \"@openzeppelin/contracts/utils/Counters.sol\";\r\nimport \"@openzeppelin/contracts/access/Ownable.sol\";\r\n//import \"@chainlink/contracts/src/v0.8/dev/VRFConsumerBase.sol\";\r\n\r\ncontract DPT is ERC721, Ownable {\r\n    using Counters for Counters.Counter;\r\n    Counters.Counter private _tokenIds;\r\n    Counters.Counter private _tmptokenIds;\r\n\r\n    //intra file data - No token until approved\r\n    mapping (uint256 => string) private _tmptokenURIs;\r\n    mapping (uint256 => string) private _tmpinventorNames;\r\n    mapping (uint256 => string) private _tmpinventionDate;\r\n    mapping (uint256 => address) private _tmpinventorAddr;\r\n    mapping (uint256 => address) private _tmpvalidatorAddr;\r\n    mapping (uint256 => bool) private _tmptokenNotHandled;\r\n\r\n\r\n\r\n\r\n    // URI holds sha256\r\n    mapping (uint256 => string) private _tokenURIs;\r\n    // Inventor Names\r\n    mapping (uint256 => string) private _inventorNames;\r\n    // Date Invented\r\n    mapping (uint256 => string) private _inventionDate;\r\n    // Inventor Address\r\n    mapping (uint256 => address) private _inventorAddr;\r\n    /* // if the token is approved or not\r\n    mapping (uint256 => bool) private _tokenApproved; */\r\n    // Validator Address\r\n    mapping (uint256 => address) private _validatorAddr;\r\n    // Delegate Address\r\n    mapping (uint256 => address) private _delegateAddr;\r\n\r\n    constructor() ERC721(\"Distributed Patent Token\", \"DPT\") {}\r\n\r\n    function filePatent(string memory sha256_hash, string memory inventor_name, string memory date) external returns (uint256) {\r\n      _tmptokenIds.increment();\r\n      uint256 newNftTokenId = _tmptokenIds.current();\r\n\r\n      _tmptokenURIs[newNftTokenId] = sha256_hash;\r\n      _tmpinventorNames[newNftTokenId] = inventor_name;\r\n      _tmpinventionDate[newNftTokenId] = date;\r\n      _tmpinventorAddr[newNftTokenId] = msg.sender;\r\n\r\n      //the first patent is automatically approved\r\n      if(newNftTokenId == 1){\r\n        _tokenIds.increment();//both are at 1 now\r\n        _mint(msg.sender, newNftTokenId);\r\n\r\n        _tokenURIs[newNftTokenId] = sha256_hash;\r\n        _inventorNames[newNftTokenId] = inventor_name;\r\n        _inventionDate[newNftTokenId] = date;\r\n        _inventorAddr[newNftTokenId] = msg.sender;\r\n        _validatorAddr[newNftTokenId] = msg.sender;\r\n        _delegateAddr[newNftTokenId] = msg.sender;\r\n        _tmptokenNotHandled[newNftTokenId] = false;\r\n\r\n      }\r\n      else{\r\n        //randomly select the validator\r\n        _tmpvalidatorAddr[newNftTokenId] = _delegateAddr[1];\r\n        _tmptokenNotHandled[newNftTokenId] = true;\r\n      }\r\n      return newNftTokenId;\r\n    }\r\n\r\n\r\n\r\n//************************ Helper Functions******************************/\r\n    // Intializing the state variable\r\n      uint randNonce = 0;\r\n\r\n      // Defining a function to generate\r\n      // a random number\r\n      function randMod(uint256 _modulus) internal returns(uint256){\r\n         // increase nonce\r\n         randNonce++;\r\n         return uint256(keccak256(abi.encodePacked(block.timestamp,  msg.sender, randNonce))) % _modulus;\r\n       }\r\n\r\n       // Defining a function to generate\r\n       // a random number from 1 to the current patent in the chain\r\n       function selectPatent() internal returns(uint256){\r\n          return 1+randMod(_tokenIds.current());\r\n        }\r\n\r\n\r\n\r\n//************************ Handling Temporary Patents******************************/\r\n\r\n    //returns the inventor of the patent\r\n    function nextToApprove() public view returns (uint256 next_patent) {\r\n    uint _j = 0;\r\n    uint current_tmp = _tmptokenIds.current();\r\n\r\n    for(_j = 2; _j <= current_tmp; _j++){\r\n      if((_tmpvalidatorAddr[_j] == msg.sender)&&_tmptokenNotHandled[_j]){\r\n        return _j;\r\n      }\r\n    }\r\n\r\n    return 0;\r\n    }\r\n    //approves the patent making a new token for it\r\n    function approvePatent(uint256 tmptokenId) external returns (bool) {\r\n        if((_tmpvalidatorAddr[tmptokenId] == msg.sender)&&_tmptokenNotHandled[tmptokenId]){//makes sure only the validator can approve\r\n            _tokenIds.increment();\r\n            uint256 newNftTokenId = _tokenIds.current();\r\n            _mint(_tmpinventorAddr[tmptokenId], newNftTokenId);\r\n\r\n            _tokenURIs[newNftTokenId] =  _tmptokenURIs[tmptokenId];\r\n            _inventorNames[newNftTokenId] = _tmpinventorNames[tmptokenId];\r\n            _inventionDate[newNftTokenId] = _tmpinventionDate[tmptokenId];\r\n            _inventorAddr[newNftTokenId] = _tmpinventorAddr[tmptokenId];\r\n            _validatorAddr[newNftTokenId] = msg.sender;\r\n            _delegateAddr[newNftTokenId] = msg.sender;\r\n\r\n            _tmptokenNotHandled[tmptokenId] = false;\r\n            return true;\r\n        }\r\n        else{\r\n            return false;\r\n        }\r\n      }\r\n\r\n      //denys the patent\r\n      function denyPatent(uint256 tmptokenId) external returns (bool) {\r\n          if((_tmpvalidatorAddr[tmptokenId] == msg.sender)&&_tmptokenNotHandled[tmptokenId] ){//makes sure only the validator can deny\r\n              _tmptokenNotHandled[tmptokenId] = false;\r\n              return true;\r\n          }\r\n          else{\r\n              return false;\r\n          }\r\n        }\r\n\r\n//************************ Handling Created Patents******************************/\r\n\r\n      //returns the SHA 256 hash of the file holding the patent\r\n    function tokenURI(uint256 tokenId) public view virtual override returns (string memory) {\r\n        require(_exists(tokenId), \"ERC721Metadata: URI query for nonexistent token\");\r\n\r\n        return _tokenURIs[tokenId];\r\n\r\n      }\r\n\r\n      //returns the inventor of the patent\r\n   function tokenInventor(uint256 tokenId) public view returns (string memory) {\r\n      require(_exists(tokenId), \"ERC721Metadata: URI query for nonexistent token\");\r\n\r\n      return _inventorNames[tokenId];\r\n    }\r\n\r\n    //returns the date of creation of the patent\r\n  function tokenDate(uint256 tokenId) public view returns (string memory) {\r\n    require(_exists(tokenId), \"ERC721Metadata: URI query for nonexistent token\");\r\n\r\n    return _inventionDate[tokenId];\r\n  }\r\n\r\n  //returns the delegate of the patent\r\n  function currentDelegate(uint256 tokenId) public view returns (address delegate) {\r\n    require(_exists(tokenId), \"ERC721Metadata: URI query for nonexistent token\");\r\n\r\n    return _delegateAddr[tokenId];\r\n  }\r\n\r\n  //changes the delegate of the patent\r\n  function currentDelegate(uint256 tokenId, address new_delegate) public  returns (bool success) {\r\n    require(_exists(tokenId), \"ERC721Metadata: URI query for nonexistent token\");\r\n    if(ownerOf(tokenId) == msg.sender){\r\n       _delegateAddr[tokenId] =new_delegate;\r\n      return true;\r\n    }\r\n    else{\r\n      return false;\r\n    }\r\n  }\r\n\r\n\r\n\r\n   function owns() public view returns (uint256[] memory) {\r\n  /* function owns() public view returns (bytes32[] memory) { */\r\n    uint256 count = 0;\r\n    uint256 _j = 1;\r\n    uint current_tmp = _tokenIds.current();\r\n\r\n    for(_j = 1; _j <= current_tmp; _j++){\r\n      if(ownerOf(_j) == msg.sender){\r\n        count++;\r\n      }\r\n    }\r\n    uint256[] memory foo = new uint256[](count);\r\n    count = 0;\r\n    for(_j = 1; _j <= current_tmp; _j++){\r\n      if(ownerOf(_j) == msg.sender){\r\n        foo[count++] = _j;\r\n      }\r\n    }\r\n    return foo;\r\n  }\r\n\r\n\r\n\r\n}\r\n",
  "sourcePath": "C:/Users/thwai/Desktop/Crypto Project/DPT/DPT/contracts/DPT.sol",
  "compiler": {
    "name": "solc",
    "version": "0.8.4+commit.c7e474f2.Emscripten.clang"
  },
  "schemaVersion": "3.3.4",
  "updatedAt": "2021-04-26T20:28:10.355Z",
  "devdoc": {
    "kind": "dev",
    "methods": {
      "approve(address,uint256)": {
        "details": "See {IERC721-approve}."
      },
      "balanceOf(address)": {
        "details": "See {IERC721-balanceOf}."
      },
      "getApproved(uint256)": {
        "details": "See {IERC721-getApproved}."
      },
      "isApprovedForAll(address,address)": {
        "details": "See {IERC721-isApprovedForAll}."
      },
      "name()": {
        "details": "See {IERC721Metadata-name}."
      },
      "owner()": {
        "details": "Returns the address of the current owner."
      },
      "ownerOf(uint256)": {
        "details": "See {IERC721-ownerOf}."
      },
      "renounceOwnership()": {
        "details": "Leaves the contract without owner. It will not be possible to call `onlyOwner` functions anymore. Can only be called by the current owner. NOTE: Renouncing ownership will leave the contract without an owner, thereby removing any functionality that is only available to the owner."
      },
      "safeTransferFrom(address,address,uint256)": {
        "details": "See {IERC721-safeTransferFrom}."
      },
      "safeTransferFrom(address,address,uint256,bytes)": {
        "details": "See {IERC721-safeTransferFrom}."
      },
      "setApprovalForAll(address,bool)": {
        "details": "See {IERC721-setApprovalForAll}."
      },
      "supportsInterface(bytes4)": {
        "details": "See {IERC165-supportsInterface}."
      },
      "symbol()": {
        "details": "See {IERC721Metadata-symbol}."
      },
      "tokenURI(uint256)": {
        "details": "See {IERC721Metadata-tokenURI}."
      },
      "transferFrom(address,address,uint256)": {
        "details": "See {IERC721-transferFrom}."
      },
      "transferOwnership(address)": {
        "details": "Transfers ownership of the contract to a new account (`newOwner`). Can only be called by the current owner."
      }
    },
    "version": 1
  },
  "userdoc": {
    "kind": "user",
    "methods": {},
    "version": 1
  }
}