{
  "contractName": "DPT",
  "abi": [
    {
      "inputs": [],
      "stateMutability": "nonpayable",
      "type": "constructor"
    },
    {
      "anonymous": false,
      "inputs": [
        {
          "indexed": true,
          "internalType": "address",
          "name": "owner",
          "type": "address"
        },
        {
          "indexed": true,
          "internalType": "address",
          "name": "approved",
          "type": "address"
        },
        {
          "indexed": true,
          "internalType": "uint256",
          "name": "tokenId",
          "type": "uint256"
        }
      ],
      "name": "Approval",
      "type": "event"
    },
    {
      "anonymous": false,
      "inputs": [
        {
          "indexed": true,
          "internalType": "address",
          "name": "owner",
          "type": "address"
        },
        {
          "indexed": true,
          "internalType": "address",
          "name": "operator",
          "type": "address"
        },
        {
          "indexed": false,
          "internalType": "bool",
          "name": "approved",
          "type": "bool"
        }
      ],
      "name": "ApprovalForAll",
      "type": "event"
    },
    {
      "anonymous": false,
      "inputs": [
        {
          "indexed": true,
          "internalType": "address",
          "name": "previousOwner",
          "type": "address"
        },
        {
          "indexed": true,
          "internalType": "address",
          "name": "newOwner",
          "type": "address"
        }
      ],
      "name": "OwnershipTransferred",
      "type": "event"
    },
    {
      "anonymous": false,
      "inputs": [
        {
          "indexed": true,
          "internalType": "address",
          "name": "from",
          "type": "address"
        },
        {
          "indexed": true,
          "internalType": "address",
          "name": "to",
          "type": "address"
        },
        {
          "indexed": true,
          "internalType": "uint256",
          "name": "tokenId",
          "type": "uint256"
        }
      ],
      "name": "Transfer",
      "type": "event"
    },
    {
      "inputs": [
        {
          "internalType": "address",
          "name": "to",
          "type": "address"
        },
        {
          "internalType": "uint256",
          "name": "tokenId",
          "type": "uint256"
        }
      ],
      "name": "approve",
      "outputs": [],
      "stateMutability": "nonpayable",
      "type": "function"
    },
    {
      "inputs": [
        {
          "internalType": "address",
          "name": "owner",
          "type": "address"
        }
      ],
      "name": "balanceOf",
      "outputs": [
        {
          "internalType": "uint256",
          "name": "",
          "type": "uint256"
        }
      ],
      "stateMutability": "view",
      "type": "function"
    },
    {
      "inputs": [
        {
          "internalType": "uint256",
          "name": "tokenId",
          "type": "uint256"
        }
      ],
      "name": "getApproved",
      "outputs": [
        {
          "internalType": "address",
          "name": "",
          "type": "address"
        }
      ],
      "stateMutability": "view",
      "type": "function"
    },
    {
      "inputs": [
        {
          "internalType": "address",
          "name": "owner",
          "type": "address"
        },
        {
          "internalType": "address",
          "name": "operator",
          "type": "address"
        }
      ],
      "name": "isApprovedForAll",
      "outputs": [
        {
          "internalType": "bool",
          "name": "",
          "type": "bool"
        }
      ],
      "stateMutability": "view",
      "type": "function"
    },
    {
      "inputs": [],
      "name": "name",
      "outputs": [
        {
          "internalType": "string",
          "name": "",
          "type": "string"
        }
      ],
      "stateMutability": "view",
      "type": "function"
    },
    {
      "inputs": [],
      "name": "owner",
      "outputs": [
        {
          "internalType": "address",
          "name": "",
          "type": "address"
        }
      ],
      "stateMutability": "view",
      "type": "function"
    },
    {
      "inputs": [
        {
          "internalType": "uint256",
          "name": "tokenId",
          "type": "uint256"
        }
      ],
      "name": "ownerOf",
      "outputs": [
        {
          "internalType": "address",
          "name": "",
          "type": "address"
        }
      ],
      "stateMutability": "view",
      "type": "function"
    },
    {
      "inputs": [],
      "name": "renounceOwnership",
      "outputs": [],
      "stateMutability": "nonpayable",
      "type": "function"
    },
    {
      "inputs": [
        {
          "internalType": "address",
          "name": "from",
          "type": "address"
        },
        {
          "internalType": "address",
          "name": "to",
          "type": "address"
        },
        {
          "internalType": "uint256",
          "name": "tokenId",
          "type": "uint256"
        }
      ],
      "name": "safeTransferFrom",
      "outputs": [],
      "stateMutability": "nonpayable",
      "type": "function"
    },
    {
      "inputs": [
        {
          "internalType": "address",
          "name": "from",
          "type": "address"
        },
        {
          "internalType": "address",
          "name": "to",
          "type": "address"
        },
        {
          "internalType": "uint256",
          "name": "tokenId",
          "type": "uint256"
        },
        {
          "internalType": "bytes",
          "name": "_data",
          "type": "bytes"
        }
      ],
      "name": "safeTransferFrom",
      "outputs": [],
      "stateMutability": "nonpayable",
      "type": "function"
    },
    {
      "inputs": [
        {
          "internalType": "address",
          "name": "operator",
          "type": "address"
        },
        {
          "internalType": "bool",
          "name": "approved",
          "type": "bool"
        }
      ],
      "name": "setApprovalForAll",
      "outputs": [],
      "stateMutability": "nonpayable",
      "type": "function"
    },
    {
      "inputs": [
        {
          "internalType": "bytes4",
          "name": "interfaceId",
          "type": "bytes4"
        }
      ],
      "name": "supportsInterface",
      "outputs": [
        {
          "internalType": "bool",
          "name": "",
          "type": "bool"
        }
      ],
      "stateMutability": "view",
      "type": "function"
    },
    {
      "inputs": [],
      "name": "symbol",
      "outputs": [
        {
          "internalType": "string",
          "name": "",
          "type": "string"
        }
      ],
      "stateMutability": "view",
      "type": "function"
    },
    {
      "inputs": [
        {
          "internalType": "address",
          "name": "from",
          "type": "address"
        },
        {
          "internalType": "address",
          "name": "to",
          "type": "address"
        },
        {
          "internalType": "uint256",
          "name": "tokenId",
          "type": "uint256"
        }
      ],
      "name": "transferFrom",
      "outputs": [],
      "stateMutability": "nonpayable",
      "type": "function"
    },
    {
      "inputs": [
        {
          "internalType": "address",
          "name": "newOwner",
          "type": "address"
        }
      ],
      "name": "transferOwnership",
      "outputs": [],
      "stateMutability": "nonpayable",
      "type": "function"
    },
    {
      "inputs": [
        {
          "internalType": "string",
          "name": "title",
          "type": "string"
        },
        {
          "internalType": "uint256",
          "name": "sha256_hash",
          "type": "uint256"
        },
        {
          "internalType": "string",
          "name": "uri_loc",
          "type": "string"
        },
        {
          "internalType": "string",
          "name": "inventor_name",
          "type": "string"
        },
        {
          "internalType": "string",
          "name": "date",
          "type": "string"
        }
      ],
      "name": "filePatent",
      "outputs": [
        {
          "internalType": "uint256",
          "name": "",
          "type": "uint256"
        }
      ],
      "stateMutability": "nonpayable",
      "type": "function"
    },
    {
      "inputs": [
        {
          "internalType": "uint256",
          "name": "tokenId",
          "type": "uint256"
        }
      ],
      "name": "tmptokenURI",
      "outputs": [
        {
          "internalType": "string",
          "name": "",
          "type": "string"
        }
      ],
      "stateMutability": "view",
      "type": "function"
    },
    {
      "inputs": [
        {
          "internalType": "uint256",
          "name": "tokenId",
          "type": "uint256"
        }
      ],
      "name": "tmptokenInventor",
      "outputs": [
        {
          "internalType": "string",
          "name": "",
          "type": "string"
        }
      ],
      "stateMutability": "view",
      "type": "function"
    },
    {
      "inputs": [
        {
          "internalType": "uint256",
          "name": "tokenId",
          "type": "uint256"
        }
      ],
      "name": "tmptokenDate",
      "outputs": [
        {
          "internalType": "string",
          "name": "",
          "type": "string"
        }
      ],
      "stateMutability": "view",
      "type": "function"
    },
    {
      "inputs": [
        {
          "internalType": "uint256",
          "name": "tokenId",
          "type": "uint256"
        }
      ],
      "name": "tmptokenTitle",
      "outputs": [
        {
          "internalType": "string",
          "name": "",
          "type": "string"
        }
      ],
      "stateMutability": "view",
      "type": "function"
    },
    {
      "inputs": [
        {
          "internalType": "uint256",
          "name": "tokenId",
          "type": "uint256"
        }
      ],
      "name": "tmptokenSHA",
      "outputs": [
        {
          "internalType": "uint256",
          "name": "",
          "type": "uint256"
        }
      ],
      "stateMutability": "view",
      "type": "function"
    },
    {
      "inputs": [],
      "name": "nextToApprove",
      "outputs": [
        {
          "internalType": "uint256",
          "name": "next_patent",
          "type": "uint256"
        }
      ],
      "stateMutability": "view",
      "type": "function"
    },
    {
      "inputs": [
        {
          "internalType": "uint256",
          "name": "tmptokenId",
          "type": "uint256"
        }
      ],
      "name": "approvePatent",
      "outputs": [
        {
          "internalType": "bool",
          "name": "",
          "type": "bool"
        }
      ],
      "stateMutability": "nonpayable",
      "type": "function"
    },
    {
      "inputs": [
        {
          "internalType": "uint256",
          "name": "tmptokenId",
          "type": "uint256"
        }
      ],
      "name": "denyPatent",
      "outputs": [
        {
          "internalType": "bool",
          "name": "",
          "type": "bool"
        }
      ],
      "stateMutability": "nonpayable",
      "type": "function"
    },
    {
      "inputs": [],
      "name": "patentCap",
      "outputs": [
        {
          "internalType": "uint256",
          "name": "",
          "type": "uint256"
        }
      ],
      "stateMutability": "view",
      "type": "function"
    },
    {
      "inputs": [
        {
          "internalType": "uint256",
          "name": "tokenId",
          "type": "uint256"
        }
      ],
      "name": "tokenURI",
      "outputs": [
        {
          "internalType": "string",
          "name": "",
          "type": "string"
        }
      ],
      "stateMutability": "view",
      "type": "function"
    },
    {
      "inputs": [
        {
          "internalType": "uint256",
          "name": "tokenId",
          "type": "uint256"
        }
      ],
      "name": "tokenInventor",
      "outputs": [
        {
          "internalType": "string",
          "name": "",
          "type": "string"
        }
      ],
      "stateMutability": "view",
      "type": "function"
    },
    {
      "inputs": [
        {
          "internalType": "uint256",
          "name": "tokenId",
          "type": "uint256"
        }
      ],
      "name": "tokenDate",
      "outputs": [
        {
          "internalType": "string",
          "name": "",
          "type": "string"
        }
      ],
      "stateMutability": "view",
      "type": "function"
    },
    {
      "inputs": [
        {
          "internalType": "uint256",
          "name": "tokenId",
          "type": "uint256"
        }
      ],
      "name": "tokenSHA",
      "outputs": [
        {
          "internalType": "uint256",
          "name": "",
          "type": "uint256"
        }
      ],
      "stateMutability": "view",
      "type": "function"
    },
    {
      "inputs": [
        {
          "internalType": "uint256",
          "name": "tokenId",
          "type": "uint256"
        }
      ],
      "name": "tokenTitle",
      "outputs": [
        {
          "internalType": "string",
          "name": "",
          "type": "string"
        }
      ],
      "stateMutability": "view",
      "type": "function"
    },
    {
      "inputs": [
        {
          "internalType": "uint256",
          "name": "tokenId",
          "type": "uint256"
        }
      ],
      "name": "currentDelegate",
      "outputs": [
        {
          "internalType": "address",
          "name": "delegate",
          "type": "address"
        }
      ],
      "stateMutability": "view",
      "type": "function"
    },
    {
      "inputs": [
        {
          "internalType": "uint256",
          "name": "tokenId",
          "type": "uint256"
        },
        {
          "internalType": "address",
          "name": "new_delegate",
          "type": "address"
        }
      ],
      "name": "changeCurrentDelegate",
      "outputs": [
        {
          "internalType": "bool",
          "name": "success",
          "type": "bool"
        }
      ],
      "stateMutability": "nonpayable",
      "type": "function"
    },
    {
      "inputs": [],
      "name": "owns",
      "outputs": [
        {
          "internalType": "string",
          "name": "",
          "type": "string"
        }
      ],
      "stateMutability": "view",
      "type": "function"
    },
    {
      "inputs": [
        {
          "internalType": "uint256",
          "name": "tokenId",
          "type": "uint256"
        }
      ],
      "name": "trade_init",
      "outputs": [
        {
          "internalType": "bool",
          "name": "",
          "type": "bool"
        }
      ],
      "stateMutability": "payable",
      "type": "function"
    },
    {
      "inputs": [
        {
          "internalType": "uint256",
          "name": "tokenId",
          "type": "uint256"
        }
      ],
      "name": "current_trade_offer",
      "outputs": [
        {
          "internalType": "uint256",
          "name": "",
          "type": "uint256"
        }
      ],
      "stateMutability": "view",
      "type": "function"
    },
    {
      "inputs": [
        {
          "internalType": "uint256",
          "name": "tokenId",
          "type": "uint256"
        },
        {
          "internalType": "uint256",
          "name": "money",
          "type": "uint256"
        }
      ],
      "name": "trade_confirm",
      "outputs": [
        {
          "internalType": "bool",
          "name": "",
          "type": "bool"
        }
      ],
      "stateMutability": "nonpayable",
      "type": "function"
    },
    {
      "inputs": [
        {
          "internalType": "uint256",
          "name": "tokenId",
          "type": "uint256"
        }
      ],
      "name": "trade_cancel",
      "outputs": [
        {
          "internalType": "bool",
          "name": "",
          "type": "bool"
        }
      ],
      "stateMutability": "nonpayable",
      "type": "function"
    }
  ],
  "bytecode": "0x60806040526000601b553480156200001657600080fd5b506040518060400160405280601881526020017f446973747269627574656420506174656e7420546f6b656e00000000000000008152506040518060400160405280600381526020017f445054000000000000000000000000000000000000000000000000000000000081525081600090805190602001906200009b92919062000176565b508060019080519060200190620000b492919062000176565b5050506000620000c96200016e60201b60201c565b905080600660006101000a81548173ffffffffffffffffffffffffffffffffffffffff021916908373ffffffffffffffffffffffffffffffffffffffff1602179055508073ffffffffffffffffffffffffffffffffffffffff16600073ffffffffffffffffffffffffffffffffffffffff167f8be0079c531659141344cd1fd0a4f28419497f9722a3daafe3b4186f6b6457e060405160405180910390a3506200028b565b600033905090565b828054620001849062000226565b90600052602060002090601f016020900481019282620001a85760008555620001f4565b82601f10620001c357805160ff1916838001178555620001f4565b82800160010185558215620001f4579182015b82811115620001f3578251825591602001919060010190620001d6565b5b50905062000203919062000207565b5090565b5b808211156200022257600081600090555060010162000208565b5090565b600060028204905060018216806200023f57607f821691505b602082108114156200025657620002556200025c565b5b50919050565b7f4e487b7100000000000000000000000000000000000000000000000000000000600052602260045260246000fd5b615022806200029b6000396000f3fe60806040526004361061021a5760003560e01c80635c90a3b611610123578063a6c0958b116100ab578063db215aab1161006f578063db215aab146108bc578063e0581efa146108f9578063e610996914610936578063e985e9c514610973578063f2fde38b146109b05761021a565b8063a6c0958b146107b1578063b88d4fde146107ee578063c87b56dd14610817578063cec1b71014610854578063d97565a81461087f5761021a565b8063715018a6116100f2578063715018a6146106f05780638da5cb5b1461070757806395d89b41146107325780639a8e40761461075d578063a22cb465146107885761021a565b80635c90a3b6146106095780636352211e14610646578063687e56711461068357806370a08231146106b35761021a565b8063154e0fd1116101a6578063369aea4511610175578063369aea45146104ec57806342842e0e146105295780634e335b8814610552578063589a5e5b1461058f578063593acc47146105cc5761021a565b8063154e0fd11461041e5780631d397abf1461045b57806323b872dd14610486578063244b12f1146104af5761021a565b80630e747fb4116101ed5780630e747fb4146102ed5780630ef6e5a31461032a57806310a742481461036757806310e6e2e9146103a457806314c5f163146103e15761021a565b806301ffc9a71461021f57806306fdde031461025c578063081812fc14610287578063095ea7b3146102c4575b600080fd5b34801561022b57600080fd5b5061024660048036038101906102419190613d45565b6109d9565b6040516102539190614346565b60405180910390f35b34801561026857600080fd5b50610271610abb565b60405161027e9190614361565b60405180910390f35b34801561029357600080fd5b506102ae60048036038101906102a99190613e6e565b610b4d565b6040516102bb91906142df565b60405180910390f35b3480156102d057600080fd5b506102eb60048036038101906102e69190613d09565b610bd2565b005b3480156102f957600080fd5b50610314600480360381019061030f9190613e6e565b610cea565b6040516103219190614361565b60405180910390f35b34801561033657600080fd5b50610351600480360381019061034c9190613e6e565b610d8f565b60405161035e9190614361565b60405180910390f35b34801561037357600080fd5b5061038e60048036038101906103899190613e6e565b610e34565b60405161039b9190614361565b60405180910390f35b3480156103b057600080fd5b506103cb60048036038101906103c69190613e97565b610f21565b6040516103d89190614346565b60405180910390f35b3480156103ed57600080fd5b5061040860048036038101906104039190613e6e565b61100d565b60405161041591906145c3565b60405180910390f35b34801561042a57600080fd5b5061044560048036038101906104409190613e6e565b61102a565b6040516104529190614346565b60405180910390f35b34801561046757600080fd5b50610470611133565b60405161047d91906145c3565b60405180910390f35b34801561049257600080fd5b506104ad60048036038101906104a89190613c03565b61120b565b005b3480156104bb57600080fd5b506104d660048036038101906104d19190613e6e565b61126b565b6040516104e39190614361565b60405180910390f35b3480156104f857600080fd5b50610513600480360381019061050e9190613e6e565b611310565b6040516105209190614346565b60405180910390f35b34801561053557600080fd5b50610550600480360381019061054b9190613c03565b6113e1565b005b34801561055e57600080fd5b5061057960048036038101906105749190613e6e565b611401565b60405161058691906145c3565b60405180910390f35b34801561059b57600080fd5b506105b660048036038101906105b19190613e6e565b611466565b6040516105c39190614346565b60405180910390f35b3480156105d857600080fd5b506105f360048036038101906105ee9190613e6e565b6117d9565b6040516106009190614361565b60405180910390f35b34801561061557600080fd5b50610630600480360381019061062b9190613d97565b6118c6565b60405161063d91906145c3565b60405180910390f35b34801561065257600080fd5b5061066d60048036038101906106689190613e6e565b611ccf565b60405161067a91906142df565b60405180910390f35b61069d60048036038101906106989190613e6e565b611d81565b6040516106aa9190614346565b60405180910390f35b3480156106bf57600080fd5b506106da60048036038101906106d59190613b9e565b611e6c565b6040516106e791906145c3565b60405180910390f35b3480156106fc57600080fd5b50610705611f24565b005b34801561071357600080fd5b5061071c612061565b60405161072991906142df565b60405180910390f35b34801561073e57600080fd5b5061074761208b565b6040516107549190614361565b60405180910390f35b34801561076957600080fd5b5061077261211d565b60405161077f91906145c3565b60405180910390f35b34801561079457600080fd5b506107af60048036038101906107aa9190613ccd565b61212e565b005b3480156107bd57600080fd5b506107d860048036038101906107d39190613e6e565b6122af565b6040516107e591906142df565b60405180910390f35b3480156107fa57600080fd5b5061081560048036038101906108109190613c52565b612334565b005b34801561082357600080fd5b5061083e60048036038101906108399190613e6e565b612396565b60405161084b9190614361565b60405180910390f35b34801561086057600080fd5b50610869612483565b6040516108769190614361565b60405180910390f35b34801561088b57600080fd5b506108a660048036038101906108a19190613e6e565b612588565b6040516108b39190614361565b60405180910390f35b3480156108c857600080fd5b506108e360048036038101906108de9190613ed3565b612675565b6040516108f09190614346565b60405180910390f35b34801561090557600080fd5b50610920600480360381019061091b9190613e6e565b612910565b60405161092d9190614361565b60405180910390f35b34801561094257600080fd5b5061095d60048036038101906109589190613e6e565b612a3d565b60405161096a91906145c3565b60405180910390f35b34801561097f57600080fd5b5061099a60048036038101906109959190613bc7565b612aa2565b6040516109a79190614346565b60405180910390f35b3480156109bc57600080fd5b506109d760048036038101906109d29190613b9e565b612b36565b005b60007f80ac58cd000000000000000000000000000000000000000000000000000000007bffffffffffffffffffffffffffffffffffffffffffffffffffffffff1916827bffffffffffffffffffffffffffffffffffffffffffffffffffffffff19161480610aa457507f5b5e139f000000000000000000000000000000000000000000000000000000007bffffffffffffffffffffffffffffffffffffffffffffffffffffffff1916827bffffffffffffffffffffffffffffffffffffffffffffffffffffffff1916145b80610ab45750610ab382612ce2565b5b9050919050565b606060008054610aca90614873565b80601f0160208091040260200160405190810160405280929190818152602001828054610af690614873565b8015610b435780601f10610b1857610100808354040283529160200191610b43565b820191906000526020600020905b815481529060010190602001808311610b2657829003601f168201915b5050505050905090565b6000610b5882612d4c565b610b97576040517f08c379a0000000000000000000000000000000000000000000000000000000008152600401610b8e90614503565b60405180910390fd5b6004600083815260200190815260200160002060009054906101000a900473ffffffffffffffffffffffffffffffffffffffff169050919050565b6000610bdd82611ccf565b90508073ffffffffffffffffffffffffffffffffffffffff168373ffffffffffffffffffffffffffffffffffffffff161415610c4e576040517f08c379a0000000000000000000000000000000000000000000000000000000008152600401610c4590614583565b60405180910390fd5b8073ffffffffffffffffffffffffffffffffffffffff16610c6d612db8565b73ffffffffffffffffffffffffffffffffffffffff161480610c9c5750610c9b81610c96612db8565b612aa2565b5b610cdb576040517f08c379a0000000000000000000000000000000000000000000000000000000008152600401610cd290614463565b60405180910390fd5b610ce58383612dc0565b505050565b6060600a60008381526020019081526020016000208054610d0a90614873565b80601f0160208091040260200160405190810160405280929190818152602001828054610d3690614873565b8015610d835780601f10610d5857610100808354040283529160200191610d83565b820191906000526020600020905b815481529060010190602001808311610d6657829003601f168201915b50505050509050919050565b6060600d60008381526020019081526020016000208054610daf90614873565b80601f0160208091040260200160405190810160405280929190818152602001828054610ddb90614873565b8015610e285780601f10610dfd57610100808354040283529160200191610e28565b820191906000526020600020905b815481529060010190602001808311610e0b57829003601f168201915b50505050509050919050565b6060610e3f82612d4c565b610e7e576040517f08c379a0000000000000000000000000000000000000000000000000000000008152600401610e75906144e3565b60405180910390fd5b601660008381526020019081526020016000208054610e9c90614873565b80601f0160208091040260200160405190810160405280929190818152602001828054610ec890614873565b8015610f155780601f10610eea57610100808354040283529160200191610f15565b820191906000526020600020905b815481529060010190602001808311610ef857829003601f168201915b50505050509050919050565b6000610f2c83612d4c565b610f6b576040517f08c379a0000000000000000000000000000000000000000000000000000000008152600401610f62906144e3565b60405180910390fd5b3373ffffffffffffffffffffffffffffffffffffffff16610f8b84611ccf565b73ffffffffffffffffffffffffffffffffffffffff16141561100257816018600085815260200190815260200160002060006101000a81548173ffffffffffffffffffffffffffffffffffffffff021916908373ffffffffffffffffffffffffffffffffffffffff16021790555060019050611007565b600090505b92915050565b600060096000838152602001908152602001600020549050919050565b600080601a60008481526020019081526020016000205490506000601a6000858152602001908152602001600020819055506019600084815260200190815260200160002060009054906101000a900473ffffffffffffffffffffffffffffffffffffffff1673ffffffffffffffffffffffffffffffffffffffff166108fc829081150290604051600060405180830381858888f193505050501580156110d5573d6000803e3d6000fd5b5060006019600085815260200190815260200160002060006101000a81548173ffffffffffffffffffffffffffffffffffffffff021916908373ffffffffffffffffffffffffffffffffffffffff1602179055506001915050919050565b6000806000905060006111466008612e79565b9050600291505b808211611201573373ffffffffffffffffffffffffffffffffffffffff16600f600084815260200190815260200160002060009054906101000a900473ffffffffffffffffffffffffffffffffffffffff1673ffffffffffffffffffffffffffffffffffffffff161480156111df57506010600083815260200190815260200160002060009054906101000a900460ff165b156111ee578192505050611208565b81806111f9906148d6565b92505061114d565b6000925050505b90565b61121c611216612db8565b82612e87565b61125b576040517f08c379a0000000000000000000000000000000000000000000000000000000008152600401611252906145a3565b60405180910390fd5b611266838383612f65565b505050565b6060600c6000838152602001908152602001600020805461128b90614873565b80601f01602080910402602001604051908101604052809291908181526020018280546112b790614873565b80156113045780601f106112d957610100808354040283529160200191611304565b820191906000526020600020905b8154815290600101906020018083116112e757829003601f168201915b50505050509050919050565b60003373ffffffffffffffffffffffffffffffffffffffff16600f600084815260200190815260200160002060009054906101000a900473ffffffffffffffffffffffffffffffffffffffff1673ffffffffffffffffffffffffffffffffffffffff1614801561139d57506010600083815260200190815260200160002060009054906101000a900460ff165b156113d75760006010600084815260200190815260200160002060006101000a81548160ff021916908315150217905550600190506113dc565b600090505b919050565b6113fc83838360405180602001604052806000815250612334565b505050565b600061140c82612d4c565b61144b576040517f08c379a0000000000000000000000000000000000000000000000000000000008152600401611442906144e3565b60405180910390fd5b601a6000838152602001908152602001600020549050919050565b60003373ffffffffffffffffffffffffffffffffffffffff16600f600084815260200190815260200160002060009054906101000a900473ffffffffffffffffffffffffffffffffffffffff1673ffffffffffffffffffffffffffffffffffffffff161480156114f357506010600083815260200190815260200160002060009054906101000a900460ff165b156117cf5761150260076131c1565b600061150e6007612e79565b905061154d600e600085815260200190815260200160002060009054906101000a900473ffffffffffffffffffffffffffffffffffffffff16826131d7565b600a60008481526020019081526020016000206016600083815260200190815260200160002090805461157f90614873565b61158a929190613935565b5060096000848152602001908152602001600020546015600083815260200190815260200160002081905550600b6000848152602001908152602001600020601160008381526020019081526020016000209080546115e890614873565b6115f3929190613935565b50600c60008481526020019081526020016000206012600083815260200190815260200160002090805461162690614873565b611631929190613935565b50600d60008481526020019081526020016000206013600083815260200190815260200160002090805461166490614873565b61166f929190613935565b50600e600084815260200190815260200160002060009054906101000a900473ffffffffffffffffffffffffffffffffffffffff166014600083815260200190815260200160002060006101000a81548173ffffffffffffffffffffffffffffffffffffffff021916908373ffffffffffffffffffffffffffffffffffffffff160217905550336017600083815260200190815260200160002060006101000a81548173ffffffffffffffffffffffffffffffffffffffff021916908373ffffffffffffffffffffffffffffffffffffffff160217905550336018600083815260200190815260200160002060006101000a81548173ffffffffffffffffffffffffffffffffffffffff021916908373ffffffffffffffffffffffffffffffffffffffff16021790555060006010600085815260200190815260200160002060006101000a81548160ff02191690831515021790555060019150506117d4565b600090505b919050565b60606117e482612d4c565b611823576040517f08c379a000000000000000000000000000000000000000000000000000000000815260040161181a90614563565b60405180910390fd5b60126000838152602001908152602001600020805461184190614873565b80601f016020809104026020016040519081016040528092919081815260200182805461186d90614873565b80156118ba5780601f1061188f576101008083540402835291602001916118ba565b820191906000526020600020905b81548152906001019060200180831161189d57829003601f168201915b50505050509050919050565b60006118d260086131c1565b60006118de6008612e79565b905086600a600083815260200190815260200160002090805190602001906119079291906139c2565b5085600960008381526020019081526020016000208190555084600b600083815260200190815260200160002090805190602001906119479291906139c2565b5083600c6000838152602001908152602001600020908051906020019061196f9291906139c2565b5082600d600083815260200190815260200160002090805190602001906119979291906139c2565b5033600e600083815260200190815260200160002060006101000a81548173ffffffffffffffffffffffffffffffffffffffff021916908373ffffffffffffffffffffffffffffffffffffffff1602179055506001811415611c0f576119fd60076131c1565b611a0733826131d7565b600a600082815260200190815260200160002060166000838152602001908152602001600020908054611a3990614873565b611a44929190613935565b506009600082815260200190815260200160002054601560008381526020019081526020016000208190555084601160008381526020019081526020016000209080519060200190611a979291906139c2565b5083601260008381526020019081526020016000209080519060200190611abf9291906139c2565b5082601360008381526020019081526020016000209080519060200190611ae79291906139c2565b50336014600083815260200190815260200160002060006101000a81548173ffffffffffffffffffffffffffffffffffffffff021916908373ffffffffffffffffffffffffffffffffffffffff160217905550336017600083815260200190815260200160002060006101000a81548173ffffffffffffffffffffffffffffffffffffffff021916908373ffffffffffffffffffffffffffffffffffffffff160217905550336018600083815260200190815260200160002060006101000a81548173ffffffffffffffffffffffffffffffffffffffff021916908373ffffffffffffffffffffffffffffffffffffffff16021790555060006010600083815260200190815260200160002060006101000a81548160ff021916908315150217905550611cc2565b601860006001815260200190815260200160002060009054906101000a900473ffffffffffffffffffffffffffffffffffffffff16600f600083815260200190815260200160002060006101000a81548173ffffffffffffffffffffffffffffffffffffffff021916908373ffffffffffffffffffffffffffffffffffffffff16021790555060016010600083815260200190815260200160002060006101000a81548160ff0219169083151502179055505b8091505095945050505050565b6000806002600084815260200190815260200160002060009054906101000a900473ffffffffffffffffffffffffffffffffffffffff169050600073ffffffffffffffffffffffffffffffffffffffff168173ffffffffffffffffffffffffffffffffffffffff161415611d78576040517f08c379a0000000000000000000000000000000000000000000000000000000008152600401611d6f906144a3565b60405180910390fd5b80915050919050565b6000601a600083815260200190815260200160002054341115611e1b57611da78261102a565b5034601a600084815260200190815260200160002081905550336019600084815260200190815260200160002060006101000a81548173ffffffffffffffffffffffffffffffffffffffff021916908373ffffffffffffffffffffffffffffffffffffffff16021790555060019050611e67565b3373ffffffffffffffffffffffffffffffffffffffff166108fc349081150290604051600060405180830381858888f19350505050158015611e61573d6000803e3d6000fd5b50600090505b919050565b60008073ffffffffffffffffffffffffffffffffffffffff168273ffffffffffffffffffffffffffffffffffffffff161415611edd576040517f08c379a0000000000000000000000000000000000000000000000000000000008152600401611ed490614483565b60405180910390fd5b600360008373ffffffffffffffffffffffffffffffffffffffff1673ffffffffffffffffffffffffffffffffffffffff168152602001908152602001600020549050919050565b611f2c612db8565b73ffffffffffffffffffffffffffffffffffffffff16611f4a612061565b73ffffffffffffffffffffffffffffffffffffffff1614611fa0576040517f08c379a0000000000000000000000000000000000000000000000000000000008152600401611f9790614523565b60405180910390fd5b600073ffffffffffffffffffffffffffffffffffffffff16600660009054906101000a900473ffffffffffffffffffffffffffffffffffffffff1673ffffffffffffffffffffffffffffffffffffffff167f8be0079c531659141344cd1fd0a4f28419497f9722a3daafe3b4186f6b6457e060405160405180910390a36000600660006101000a81548173ffffffffffffffffffffffffffffffffffffffff021916908373ffffffffffffffffffffffffffffffffffffffff160217905550565b6000600660009054906101000a900473ffffffffffffffffffffffffffffffffffffffff16905090565b60606001805461209a90614873565b80601f01602080910402602001604051908101604052809291908181526020018280546120c690614873565b80156121135780601f106120e857610100808354040283529160200191612113565b820191906000526020600020905b8154815290600101906020018083116120f657829003601f168201915b5050505050905090565b60006121296007612e79565b905090565b612136612db8565b73ffffffffffffffffffffffffffffffffffffffff168273ffffffffffffffffffffffffffffffffffffffff1614156121a4576040517f08c379a000000000000000000000000000000000000000000000000000000000815260040161219b90614423565b60405180910390fd5b80600560006121b1612db8565b73ffffffffffffffffffffffffffffffffffffffff1673ffffffffffffffffffffffffffffffffffffffff16815260200190815260200160002060008473ffffffffffffffffffffffffffffffffffffffff1673ffffffffffffffffffffffffffffffffffffffff16815260200190815260200160002060006101000a81548160ff0219169083151502179055508173ffffffffffffffffffffffffffffffffffffffff1661225e612db8565b73ffffffffffffffffffffffffffffffffffffffff167f17307eab39ab6107e8899845ad3d59bd9653f200f220920489ca2b5937696c31836040516122a39190614346565b60405180910390a35050565b60006122ba82612d4c565b6122f9576040517f08c379a00000000000000000000000000000000000000000000000000000000081526004016122f0906144e3565b60405180910390fd5b6018600083815260200190815260200160002060009054906101000a900473ffffffffffffffffffffffffffffffffffffffff169050919050565b61234561233f612db8565b83612e87565b612384576040517f08c379a000000000000000000000000000000000000000000000000000000000815260040161237b906145a3565b60405180910390fd5b612390848484846133a5565b50505050565b60606123a182612d4c565b6123e0576040517f08c379a00000000000000000000000000000000000000000000000000000000081526004016123d790614383565b60405180910390fd5b6011600083815260200190815260200160002080546123fe90614873565b80601f016020809104026020016040519081016040528092919081815260200182805461242a90614873565b80156124775780601f1061244c57610100808354040283529160200191612477565b820191906000526020600020905b81548152906001019060200180831161245a57829003601f168201915b50505050509050919050565b606060006001905060006124976007612e79565b905060006040518060400160405280600281526020017f5b200000000000000000000000000000000000000000000000000000000000008152509050600192505b81831161255d573373ffffffffffffffffffffffffffffffffffffffff166124ff84611ccf565b73ffffffffffffffffffffffffffffffffffffffff16141561254a576125258184613401565b905080604051602001612538919061429b565b60405160208183030381529060405290505b8280612555906148d6565b9350506124d8565b8060405160200161256e91906142bd565b604051602081830303815290604052905080935050505090565b606061259382612d4c565b6125d2576040517f08c379a00000000000000000000000000000000000000000000000000000000081526004016125c9906144e3565b60405180910390fd5b6013600083815260200190815260200160002080546125f090614873565b80601f016020809104026020016040519081016040528092919081815260200182805461261c90614873565b80156126695780601f1061263e57610100808354040283529160200191612669565b820191906000526020600020905b81548152906001019060200180831161264c57829003601f168201915b50505050509050919050565b60003373ffffffffffffffffffffffffffffffffffffffff1661269784611ccf565b73ffffffffffffffffffffffffffffffffffffffff16141561290557601a6000848152602001908152602001600020548211612904576000601a60008581526020019081526020016000205490506000601a6000868152602001908152602001600020819055503373ffffffffffffffffffffffffffffffffffffffff166108fc6005600484612727919061472f565b61273191906146fe565b9081150290604051600060405180830381858888f1935050505015801561275c573d6000803e3d6000fd5b506014600085815260200190815260200160002060009054906101000a900473ffffffffffffffffffffffffffffffffffffffff1673ffffffffffffffffffffffffffffffffffffffff166108fc600a836127b791906146fe565b9081150290604051600060405180830381858888f193505050501580156127e2573d6000803e3d6000fd5b506018600085815260200190815260200160002060009054906101000a900473ffffffffffffffffffffffffffffffffffffffff1673ffffffffffffffffffffffffffffffffffffffff166108fc600a8361283d91906146fe565b9081150290604051600060405180830381858888f19350505050158015612868573d6000803e3d6000fd5b506128a7336019600087815260200190815260200160002060009054906101000a900473ffffffffffffffffffffffffffffffffffffffff168661120b565b60006019600086815260200190815260200160002060006101000a81548173ffffffffffffffffffffffffffffffffffffffff021916908373ffffffffffffffffffffffffffffffffffffffff160217905550600191505061290a565b5b600090505b92915050565b6060600f600083815260200190815260200160002060009054906101000a900473ffffffffffffffffffffffffffffffffffffffff1673ffffffffffffffffffffffffffffffffffffffff163373ffffffffffffffffffffffffffffffffffffffff161415612a1c57600b6000838152602001908152602001600020805461299790614873565b80601f01602080910402602001604051908101604052809291908181526020018280546129c390614873565b8015612a105780601f106129e557610100808354040283529160200191612a10565b820191906000526020600020905b8154815290600101906020018083116129f357829003601f168201915b50505050509050612a38565b6040518060600160405280602b8152602001614fc2602b913990505b919050565b6000612a4882612d4c565b612a87576040517f08c379a0000000000000000000000000000000000000000000000000000000008152600401612a7e906144e3565b60405180910390fd5b60156000838152602001908152602001600020549050919050565b6000600560008473ffffffffffffffffffffffffffffffffffffffff1673ffffffffffffffffffffffffffffffffffffffff16815260200190815260200160002060008373ffffffffffffffffffffffffffffffffffffffff1673ffffffffffffffffffffffffffffffffffffffff16815260200190815260200160002060009054906101000a900460ff16905092915050565b612b3e612db8565b73ffffffffffffffffffffffffffffffffffffffff16612b5c612061565b73ffffffffffffffffffffffffffffffffffffffff1614612bb2576040517f08c379a0000000000000000000000000000000000000000000000000000000008152600401612ba990614523565b60405180910390fd5b600073ffffffffffffffffffffffffffffffffffffffff168173ffffffffffffffffffffffffffffffffffffffff161415612c22576040517f08c379a0000000000000000000000000000000000000000000000000000000008152600401612c19906143c3565b60405180910390fd5b8073ffffffffffffffffffffffffffffffffffffffff16600660009054906101000a900473ffffffffffffffffffffffffffffffffffffffff1673ffffffffffffffffffffffffffffffffffffffff167f8be0079c531659141344cd1fd0a4f28419497f9722a3daafe3b4186f6b6457e060405160405180910390a380600660006101000a81548173ffffffffffffffffffffffffffffffffffffffff021916908373ffffffffffffffffffffffffffffffffffffffff16021790555050565b60007f01ffc9a7000000000000000000000000000000000000000000000000000000007bffffffffffffffffffffffffffffffffffffffffffffffffffffffff1916827bffffffffffffffffffffffffffffffffffffffffffffffffffffffff1916149050919050565b60008073ffffffffffffffffffffffffffffffffffffffff166002600084815260200190815260200160002060009054906101000a900473ffffffffffffffffffffffffffffffffffffffff1673ffffffffffffffffffffffffffffffffffffffff1614159050919050565b600033905090565b816004600083815260200190815260200160002060006101000a81548173ffffffffffffffffffffffffffffffffffffffff021916908373ffffffffffffffffffffffffffffffffffffffff160217905550808273ffffffffffffffffffffffffffffffffffffffff16612e3383611ccf565b73ffffffffffffffffffffffffffffffffffffffff167f8c5be1e5ebec7d5bd14f71427d1e84f3dd0314c0f7b2291e5b200ac8c7c3b92560405160405180910390a45050565b600081600001549050919050565b6000612e9282612d4c565b612ed1576040517f08c379a0000000000000000000000000000000000000000000000000000000008152600401612ec890614443565b60405180910390fd5b6000612edc83611ccf565b90508073ffffffffffffffffffffffffffffffffffffffff168473ffffffffffffffffffffffffffffffffffffffff161480612f4b57508373ffffffffffffffffffffffffffffffffffffffff16612f3384610b4d565b73ffffffffffffffffffffffffffffffffffffffff16145b80612f5c5750612f5b8185612aa2565b5b91505092915050565b8273ffffffffffffffffffffffffffffffffffffffff16612f8582611ccf565b73ffffffffffffffffffffffffffffffffffffffff1614612fdb576040517f08c379a0000000000000000000000000000000000000000000000000000000008152600401612fd290614543565b60405180910390fd5b600073ffffffffffffffffffffffffffffffffffffffff168273ffffffffffffffffffffffffffffffffffffffff16141561304b576040517f08c379a000000000000000000000000000000000000000000000000000000000815260040161304290614403565b60405180910390fd5b613056838383613786565b613061600082612dc0565b6001600360008573ffffffffffffffffffffffffffffffffffffffff1673ffffffffffffffffffffffffffffffffffffffff16815260200190815260200160002060008282546130b19190614789565b925050819055506001600360008473ffffffffffffffffffffffffffffffffffffffff1673ffffffffffffffffffffffffffffffffffffffff168152602001908152602001600020600082825461310891906146a8565b92505081905550816002600083815260200190815260200160002060006101000a81548173ffffffffffffffffffffffffffffffffffffffff021916908373ffffffffffffffffffffffffffffffffffffffff160217905550808273ffffffffffffffffffffffffffffffffffffffff168473ffffffffffffffffffffffffffffffffffffffff167fddf252ad1be2c89b69c2b068fc378daa952ba7f163c4a11628f55a4df523b3ef60405160405180910390a4505050565b6001816000016000828254019250508190555050565b600073ffffffffffffffffffffffffffffffffffffffff168273ffffffffffffffffffffffffffffffffffffffff161415613247576040517f08c379a000000000000000000000000000000000000000000000000000000000815260040161323e906144c3565b60405180910390fd5b61325081612d4c565b15613290576040517f08c379a0000000000000000000000000000000000000000000000000000000008152600401613287906143e3565b60405180910390fd5b61329c60008383613786565b6001600360008473ffffffffffffffffffffffffffffffffffffffff1673ffffffffffffffffffffffffffffffffffffffff16815260200190815260200160002060008282546132ec91906146a8565b92505081905550816002600083815260200190815260200160002060006101000a81548173ffffffffffffffffffffffffffffffffffffffff021916908373ffffffffffffffffffffffffffffffffffffffff160217905550808273ffffffffffffffffffffffffffffffffffffffff16600073ffffffffffffffffffffffffffffffffffffffff167fddf252ad1be2c89b69c2b068fc378daa952ba7f163c4a11628f55a4df523b3ef60405160405180910390a45050565b6133b0848484612f65565b6133bc8484848461378b565b6133fb576040517f08c379a00000000000000000000000000000000000000000000000000000000081526004016133f2906143a3565b60405180910390fd5b50505050565b606060006064905060008167ffffffffffffffff81111561344b577f4e487b7100000000000000000000000000000000000000000000000000000000600052604160045260246000fd5b6040519080825280601f01601f19166020018201604052801561347d5781602001600182028036833780820191505090505b50905060005b60008514613535576000600a8661349a919061491f565b9050600a866134a991906146fe565b95508060306134b891906146a8565b60f81b8383806134c7906148d6565b945081518110613500577f4e487b7100000000000000000000000000000000000000000000000000000000600052603260045260246000fd5b60200101907effffffffffffffffffffffffffffffffffffffffffffffffffffffffffffff1916908160001a90535050613483565b6000869050600082825161354991906146a8565b67ffffffffffffffff811115613588577f4e487b7100000000000000000000000000000000000000000000000000000000600052604160045260246000fd5b6040519080825280601f01601f1916602001820160405280156135ba5781602001600182028036833780820191505090505b50905060005b825181101561368857828181518110613602577f4e487b7100000000000000000000000000000000000000000000000000000000600052603260045260246000fd5b602001015160f81c60f81b828281518110613646577f4e487b7100000000000000000000000000000000000000000000000000000000600052603260045260246000fd5b60200101907effffffffffffffffffffffffffffffffffffffffffffffffffffffffffffff1916908160001a9053508080613680906148d6565b9150506135c0565b600090505b838110156137775784816001866136a49190614789565b6136ae9190614789565b815181106136e5577f4e487b7100000000000000000000000000000000000000000000000000000000600052603260045260246000fd5b602001015160f81c60f81b828451836136fe91906146a8565b81518110613735577f4e487b7100000000000000000000000000000000000000000000000000000000600052603260045260246000fd5b60200101907effffffffffffffffffffffffffffffffffffffffffffffffffffffffffffff1916908160001a905350808061376f906148d6565b91505061368d565b81965050505050505092915050565b505050565b60006137ac8473ffffffffffffffffffffffffffffffffffffffff16613922565b15613915578373ffffffffffffffffffffffffffffffffffffffff1663150b7a026137d5612db8565b8786866040518563ffffffff1660e01b81526004016137f794939291906142fa565b602060405180830381600087803b15801561381157600080fd5b505af192505050801561384257506040513d601f19601f8201168201806040525081019061383f9190613d6e565b60015b6138c5573d8060008114613872576040519150601f19603f3d011682016040523d82523d6000602084013e613877565b606091505b506000815114156138bd576040517f08c379a00000000000000000000000000000000000000000000000000000000081526004016138b4906143a3565b60405180910390fd5b805181602001fd5b63150b7a0260e01b7bffffffffffffffffffffffffffffffffffffffffffffffffffffffff1916817bffffffffffffffffffffffffffffffffffffffffffffffffffffffff19161491505061391a565b600190505b949350505050565b600080823b905060008111915050919050565b82805461394190614873565b90600052602060002090601f01602090048101928261396357600085556139b1565b82601f1061397457805485556139b1565b828001600101855582156139b157600052602060002091601f016020900482015b828111156139b0578254825591600101919060010190613995565b5b5090506139be9190613a48565b5090565b8280546139ce90614873565b90600052602060002090601f0160209004810192826139f05760008555613a37565b82601f10613a0957805160ff1916838001178555613a37565b82800160010185558215613a37579182015b82811115613a36578251825591602001919060010190613a1b565b5b509050613a449190613a48565b5090565b5b80821115613a61576000816000905550600101613a49565b5090565b6000613a78613a7384614603565b6145de565b905082815260208101848484011115613a9057600080fd5b613a9b848285614831565b509392505050565b6000613ab6613ab184614634565b6145de565b905082815260208101848484011115613ace57600080fd5b613ad9848285614831565b509392505050565b600081359050613af081614f65565b92915050565b600081359050613b0581614f7c565b92915050565b600081359050613b1a81614f93565b92915050565b600081519050613b2f81614f93565b92915050565b600082601f830112613b4657600080fd5b8135613b56848260208601613a65565b91505092915050565b600082601f830112613b7057600080fd5b8135613b80848260208601613aa3565b91505092915050565b600081359050613b9881614faa565b92915050565b600060208284031215613bb057600080fd5b6000613bbe84828501613ae1565b91505092915050565b60008060408385031215613bda57600080fd5b6000613be885828601613ae1565b9250506020613bf985828601613ae1565b9150509250929050565b600080600060608486031215613c1857600080fd5b6000613c2686828701613ae1565b9350506020613c3786828701613ae1565b9250506040613c4886828701613b89565b9150509250925092565b60008060008060808587031215613c6857600080fd5b6000613c7687828801613ae1565b9450506020613c8787828801613ae1565b9350506040613c9887828801613b89565b925050606085013567ffffffffffffffff811115613cb557600080fd5b613cc187828801613b35565b91505092959194509250565b60008060408385031215613ce057600080fd5b6000613cee85828601613ae1565b9250506020613cff85828601613af6565b9150509250929050565b60008060408385031215613d1c57600080fd5b6000613d2a85828601613ae1565b9250506020613d3b85828601613b89565b9150509250929050565b600060208284031215613d5757600080fd5b6000613d6584828501613b0b565b91505092915050565b600060208284031215613d8057600080fd5b6000613d8e84828501613b20565b91505092915050565b600080600080600060a08688031215613daf57600080fd5b600086013567ffffffffffffffff811115613dc957600080fd5b613dd588828901613b5f565b9550506020613de688828901613b89565b945050604086013567ffffffffffffffff811115613e0357600080fd5b613e0f88828901613b5f565b935050606086013567ffffffffffffffff811115613e2c57600080fd5b613e3888828901613b5f565b925050608086013567ffffffffffffffff811115613e5557600080fd5b613e6188828901613b5f565b9150509295509295909350565b600060208284031215613e8057600080fd5b6000613e8e84828501613b89565b91505092915050565b60008060408385031215613eaa57600080fd5b6000613eb885828601613b89565b9250506020613ec985828601613ae1565b9150509250929050565b60008060408385031215613ee657600080fd5b6000613ef485828601613b89565b9250506020613f0585828601613b89565b9150509250929050565b613f18816147bd565b82525050565b613f27816147cf565b82525050565b6000613f3882614665565b613f42818561467b565b9350613f52818560208601614840565b613f5b81614a0c565b840191505092915050565b6000613f7182614670565b613f7b818561468c565b9350613f8b818560208601614840565b613f9481614a0c565b840191505092915050565b6000613faa82614670565b613fb4818561469d565b9350613fc4818560208601614840565b80840191505092915050565b6000613fdd602c8361468c565b9150613fe882614a1d565b604082019050919050565b600061400060328361468c565b915061400b82614a6c565b604082019050919050565b600061402360268361468c565b915061402e82614abb565b604082019050919050565b6000614046601c8361468c565b915061405182614b0a565b602082019050919050565b600061406960248361468c565b915061407482614b33565b604082019050919050565b600061408c60198361468c565b915061409782614b82565b602082019050919050565b60006140af602c8361468c565b91506140ba82614bab565b604082019050919050565b60006140d260018361469d565b91506140dd82614bfa565b600182019050919050565b60006140f560388361468c565b915061410082614c23565b604082019050919050565b6000614118602a8361468c565b915061412382614c72565b604082019050919050565b600061413b60298361468c565b915061414682614cc1565b604082019050919050565b600061415e60208361468c565b915061416982614d10565b602082019050919050565b6000614181602b8361468c565b915061418c82614d39565b604082019050919050565b60006141a4602c8361468c565b91506141af82614d88565b604082019050919050565b60006141c760208361468c565b91506141d282614dd7565b602082019050919050565b60006141ea60298361468c565b91506141f582614e00565b604082019050919050565b600061420d602f8361468c565b915061421882614e4f565b604082019050919050565b600061423060018361469d565b915061423b82614e9e565b600182019050919050565b600061425360218361468c565b915061425e82614ec7565b604082019050919050565b600061427660318361468c565b915061428182614f16565b604082019050919050565b61429581614827565b82525050565b60006142a78284613f9f565b91506142b2826140c5565b915081905092915050565b60006142c98284613f9f565b91506142d482614223565b915081905092915050565b60006020820190506142f46000830184613f0f565b92915050565b600060808201905061430f6000830187613f0f565b61431c6020830186613f0f565b614329604083018561428c565b818103606083015261433b8184613f2d565b905095945050505050565b600060208201905061435b6000830184613f1e565b92915050565b6000602082019050818103600083015261437b8184613f66565b905092915050565b6000602082019050818103600083015261439c81613fd0565b9050919050565b600060208201905081810360008301526143bc81613ff3565b9050919050565b600060208201905081810360008301526143dc81614016565b9050919050565b600060208201905081810360008301526143fc81614039565b9050919050565b6000602082019050818103600083015261441c8161405c565b9050919050565b6000602082019050818103600083015261443c8161407f565b9050919050565b6000602082019050818103600083015261445c816140a2565b9050919050565b6000602082019050818103600083015261447c816140e8565b9050919050565b6000602082019050818103600083015261449c8161410b565b9050919050565b600060208201905081810360008301526144bc8161412e565b9050919050565b600060208201905081810360008301526144dc81614151565b9050919050565b600060208201905081810360008301526144fc81614174565b9050919050565b6000602082019050818103600083015261451c81614197565b9050919050565b6000602082019050818103600083015261453c816141ba565b9050919050565b6000602082019050818103600083015261455c816141dd565b9050919050565b6000602082019050818103600083015261457c81614200565b9050919050565b6000602082019050818103600083015261459c81614246565b9050919050565b600060208201905081810360008301526145bc81614269565b9050919050565b60006020820190506145d8600083018461428c565b92915050565b60006145e86145f9565b90506145f482826148a5565b919050565b6000604051905090565b600067ffffffffffffffff82111561461e5761461d6149dd565b5b61462782614a0c565b9050602081019050919050565b600067ffffffffffffffff82111561464f5761464e6149dd565b5b61465882614a0c565b9050602081019050919050565b600081519050919050565b600081519050919050565b600082825260208201905092915050565b600082825260208201905092915050565b600081905092915050565b60006146b382614827565b91506146be83614827565b9250827fffffffffffffffffffffffffffffffffffffffffffffffffffffffffffffffff038211156146f3576146f2614950565b5b828201905092915050565b600061470982614827565b915061471483614827565b9250826147245761472361497f565b5b828204905092915050565b600061473a82614827565b915061474583614827565b9250817fffffffffffffffffffffffffffffffffffffffffffffffffffffffffffffffff048311821515161561477e5761477d614950565b5b828202905092915050565b600061479482614827565b915061479f83614827565b9250828210156147b2576147b1614950565b5b828203905092915050565b60006147c882614807565b9050919050565b60008115159050919050565b60007fffffffff0000000000000000000000000000000000000000000000000000000082169050919050565b600073ffffffffffffffffffffffffffffffffffffffff82169050919050565b6000819050919050565b82818337600083830152505050565b60005b8381101561485e578082015181840152602081019050614843565b8381111561486d576000848401525b50505050565b6000600282049050600182168061488b57607f821691505b6020821081141561489f5761489e6149ae565b5b50919050565b6148ae82614a0c565b810181811067ffffffffffffffff821117156148cd576148cc6149dd565b5b80604052505050565b60006148e182614827565b91507fffffffffffffffffffffffffffffffffffffffffffffffffffffffffffffffff82141561491457614913614950565b5b600182019050919050565b600061492a82614827565b915061493583614827565b9250826149455761494461497f565b5b828206905092915050565b7f4e487b7100000000000000000000000000000000000000000000000000000000600052601160045260246000fd5b7f4e487b7100000000000000000000000000000000000000000000000000000000600052601260045260246000fd5b7f4e487b7100000000000000000000000000000000000000000000000000000000600052602260045260246000fd5b7f4e487b7100000000000000000000000000000000000000000000000000000000600052604160045260246000fd5b6000601f19601f8301169050919050565b7f4552433732314d657461646174613a2020717565727920666f72206e6f6e657860008201527f697374656e7420746f6b656e0000000000000000000000000000000000000000602082015250565b7f4552433732313a207472616e7366657220746f206e6f6e20455243373231526560008201527f63656976657220696d706c656d656e7465720000000000000000000000000000602082015250565b7f4f776e61626c653a206e6577206f776e657220697320746865207a65726f206160008201527f6464726573730000000000000000000000000000000000000000000000000000602082015250565b7f4552433732313a20746f6b656e20616c7265616479206d696e74656400000000600082015250565b7f4552433732313a207472616e7366657220746f20746865207a65726f2061646460008201527f7265737300000000000000000000000000000000000000000000000000000000602082015250565b7f4552433732313a20617070726f766520746f2063616c6c657200000000000000600082015250565b7f4552433732313a206f70657261746f7220717565727920666f72206e6f6e657860008201527f697374656e7420746f6b656e0000000000000000000000000000000000000000602082015250565b7f2000000000000000000000000000000000000000000000000000000000000000600082015250565b7f4552433732313a20617070726f76652063616c6c6572206973206e6f74206f7760008201527f6e6572206e6f7220617070726f76656420666f7220616c6c0000000000000000602082015250565b7f4552433732313a2062616c616e636520717565727920666f7220746865207a6560008201527f726f206164647265737300000000000000000000000000000000000000000000602082015250565b7f4552433732313a206f776e657220717565727920666f72206e6f6e657869737460008201527f656e7420746f6b656e0000000000000000000000000000000000000000000000602082015250565b7f4552433732313a206d696e7420746f20746865207a65726f2061646472657373600082015250565b7f4552433732314d657461646174613a20717565727920666f72206e6f6e65786960008201527f7374656e7420746f6b656e000000000000000000000000000000000000000000602082015250565b7f4552433732313a20617070726f76656420717565727920666f72206e6f6e657860008201527f697374656e7420746f6b656e0000000000000000000000000000000000000000602082015250565b7f4f776e61626c653a2063616c6c6572206973206e6f7420746865206f776e6572600082015250565b7f4552433732313a207472616e73666572206f6620746f6b656e2074686174206960008201527f73206e6f74206f776e0000000000000000000000000000000000000000000000602082015250565b7f4552433732314d657461646174613a2055524920717565727920666f72206e6f60008201527f6e6578697374656e7420746f6b656e0000000000000000000000000000000000602082015250565b7f5d00000000000000000000000000000000000000000000000000000000000000600082015250565b7f4552433732313a20617070726f76616c20746f2063757272656e74206f776e6560008201527f7200000000000000000000000000000000000000000000000000000000000000602082015250565b7f4552433732313a207472616e736665722063616c6c6572206973206e6f74206f60008201527f776e6572206e6f7220617070726f766564000000000000000000000000000000602082015250565b614f6e816147bd565b8114614f7957600080fd5b50565b614f85816147cf565b8114614f9057600080fd5b50565b614f9c816147db565b8114614fa757600080fd5b50565b614fb381614827565b8114614fbe57600080fd5b5056fe68747470733a2f2f7777772e796f75747562652e636f6d2f77617463683f763d6451773477395767586351a264697066735822122051d3af1b0bc88018909797dfbcbbf88e08d67b11999620d52c1e593346f7e43064736f6c63430008040033",
  "immutableReferences": {},
  "source": "// SPDX-License-Identifier: MIT\r\npragma solidity ^0.8.0;\r\n\r\nimport \"@openzeppelin/contracts/token/ERC721/ERC721.sol\";\r\nimport \"@openzeppelin/contracts/utils/Counters.sol\";\r\nimport \"@openzeppelin/contracts/access/Ownable.sol\";\r\n//import \"@chainlink/contracts/src/v0.8/dev/VRFConsumerBase.sol\";\r\n\r\ncontract DPT is ERC721, Ownable {\r\n    using Counters for Counters.Counter;\r\n    Counters.Counter private _tokenIds;\r\n    Counters.Counter private _tmptokenIds;\r\n\r\n    //intra file data - No token until approved\r\n    mapping (uint256 => uint256) private _tmptokenSHAs;\r\n    mapping (uint256 => string) private _tmptokenTitles;\r\n    mapping (uint256 => string) private _tmptokenURIs;\r\n    mapping (uint256 => string) private _tmpinventorNames;\r\n    mapping (uint256 => string) private _tmpinventionDate;\r\n    mapping (uint256 => address) private _tmpinventorAddr;\r\n    mapping (uint256 => address) private _tmpvalidatorAddr;\r\n    mapping (uint256 => bool) private _tmptokenNotHandled;\r\n\r\n\r\n\r\n\r\n    // URI holds sha256\r\n    mapping (uint256 => string) private _tokenURIs;\r\n    // Inventor Names\r\n    mapping (uint256 => string) private _inventorNames;\r\n    // Date Invented\r\n    mapping (uint256 => string) private _inventionDate;\r\n    // Inventor Address\r\n    mapping (uint256 => address) private _inventorAddr;\r\n    // sha256\r\n    mapping (uint256 => uint256) private _tokenSHAs;\r\n    // Titles\r\n    mapping (uint256 => string) private _tokenTitles;\r\n    // Validator Address\r\n    mapping (uint256 => address) private _validatorAddr;\r\n    // Delegate Address\r\n    mapping (uint256 => address) private _delegateAddr;\r\n\r\n    // Buyer Address\r\n    mapping (uint256 => address) private _buyerAddr;\r\n    // Buying Price\r\n    mapping (uint256 => uint256) private _buyingPrice;\r\n\r\n    constructor() ERC721(\"Distributed Patent Token\", \"DPT\") {}\r\n\r\n    function filePatent(string memory title, uint256 sha256_hash, string memory uri_loc, string memory inventor_name, string memory date) external returns (uint256) {\r\n      _tmptokenIds.increment();\r\n      uint256 newNftTokenId = _tmptokenIds.current();\r\n\r\n\r\n      _tmptokenTitles[newNftTokenId] = title;\r\n      _tmptokenSHAs[newNftTokenId] = sha256_hash;\r\n      _tmptokenURIs[newNftTokenId] = uri_loc;\r\n      _tmpinventorNames[newNftTokenId] = inventor_name;\r\n      _tmpinventionDate[newNftTokenId] = date;\r\n      _tmpinventorAddr[newNftTokenId] = msg.sender;\r\n\r\n      //the first patent is automatically approved\r\n      if(newNftTokenId == 1){\r\n        _tokenIds.increment();//both are at 1 now\r\n        _mint(msg.sender, newNftTokenId);\r\n\r\n        _tokenTitles[newNftTokenId] = _tmptokenTitles[newNftTokenId];\r\n        _tokenSHAs[newNftTokenId] = _tmptokenSHAs[newNftTokenId];\r\n        _tokenURIs[newNftTokenId] = uri_loc;\r\n        _inventorNames[newNftTokenId] = inventor_name;\r\n        _inventionDate[newNftTokenId] = date;\r\n        _inventorAddr[newNftTokenId] = msg.sender;\r\n        _validatorAddr[newNftTokenId] = msg.sender;\r\n        _delegateAddr[newNftTokenId] = msg.sender;\r\n        _tmptokenNotHandled[newNftTokenId] = false;\r\n\r\n      }\r\n      else{\r\n        //randomly select the validator\r\n        _tmpvalidatorAddr[newNftTokenId] = _delegateAddr[1];\r\n        _tmptokenNotHandled[newNftTokenId] = true;\r\n      }\r\n      return newNftTokenId;\r\n    }\r\n\r\n\r\n\r\n//************************ Helper Functions******************************/\r\n  /* function uintToString(uint v) internal  returns (string str) {\r\n      uint maxlength = 100;\r\n      bytes memory reversed = new bytes(maxlength);\r\n      uint i = 0;\r\n      while (v != 0) {\r\n          uint remainder = v % 10;\r\n          v = v / 10;\r\n          reversed[i++] = bytes1(uint8(48 + remainder));\r\n      }\r\n      bytes memory s = new bytes(i);\r\n      for (uint j = 0; j < i; j++) {\r\n          s[j] = reversed[i - 1 - j];\r\n      }\r\n      str = string(s);\r\n  } */\r\n\r\n  function appendUintToString(string memory inStr, uint v) internal pure returns (string memory) {\r\n      uint maxlength = 100;\r\n      bytes memory reversed = new bytes(maxlength);\r\n      uint i = 0;\r\n      while (v != 0) {\r\n          uint remainder = v % 10;\r\n          v = v / 10;\r\n          reversed[i++] = bytes1(uint8(48 + remainder));\r\n      }\r\n      bytes memory inStrb = bytes(inStr);\r\n      bytes memory s = new bytes(inStrb.length + i);\r\n      uint j;\r\n      for (j = 0; j < inStrb.length; j++) {\r\n          s[j] = inStrb[j];\r\n      }\r\n      for (j = 0; j < i; j++) {\r\n          s[j + inStrb.length] = reversed[i - 1 - j];\r\n      }\r\n      return string(s);\r\n  }\r\n\r\n\r\n    // Intializing the state variable\r\n      uint randNonce = 0;\r\n\r\n      // Defining a function to generate\r\n      // a random number\r\n      function randMod(uint256 _modulus) internal returns(uint256){\r\n         // increase nonce\r\n         randNonce++;\r\n         return uint256(keccak256(abi.encodePacked(block.timestamp,  msg.sender, randNonce))) % _modulus;\r\n       }\r\n\r\n       // Defining a function to generate\r\n       // a random number from 1 to the current patent in the chain\r\n       function selectPatent() internal returns(uint256){\r\n          return 1+randMod(_tokenIds.current());\r\n        }\r\n\r\n\r\n\r\n//************************ Handling Temporary Patents******************************/\r\n\r\n\r\n  //returns the SHA 256 hash of the file holding the tmp patent\r\n  function tmptokenURI(uint256 tokenId) public view  returns (string memory) {\r\n     if((msg.sender == _tmpvalidatorAddr[tokenId])){\r\n          return _tmptokenURIs[tokenId];\r\n     }\r\n     else{\r\n        return \"https://www.youtube.com/watch?v=dQw4w9WgXcQ\";\r\n     }\r\n  }\r\n\r\n  //returns the inventor of the tmp patent\r\n  function tmptokenInventor(uint256 tokenId) public view returns (string memory) {\r\n      return _tmpinventorNames[tokenId];\r\n  }\r\n\r\n  //returns the date of creation of the tmp patent\r\n  function tmptokenDate(uint256 tokenId) public view returns (string memory) {\r\n      return _tmpinventionDate[tokenId];\r\n  }\r\n\r\n  //returns the title of the tmp patent\r\n  function tmptokenTitle(uint256 tokenId) public view returns (string memory) {\r\n      return _tmptokenTitles[tokenId];\r\n  }\r\n\r\n  //returns the sha 256 of the tmp patent\r\n  function tmptokenSHA(uint256 tokenId) public view returns (uint256) {\r\n      return _tmptokenSHAs[tokenId];\r\n  }\r\n\r\n\r\n    //returns the inventor of the patent\r\n    function nextToApprove() public view returns (uint256 next_patent) {\r\n    uint _j = 0;\r\n    uint current_tmp = _tmptokenIds.current();\r\n\r\n    for(_j = 2; _j <= current_tmp; _j++){\r\n      if((_tmpvalidatorAddr[_j] == msg.sender)&&_tmptokenNotHandled[_j]){\r\n        return _j;\r\n      }\r\n    }\r\n\r\n    return 0;\r\n    }\r\n    //approves the patent making a new token for it\r\n    function approvePatent(uint256 tmptokenId) external returns (bool) {\r\n        if((_tmpvalidatorAddr[tmptokenId] == msg.sender)&&_tmptokenNotHandled[tmptokenId]){//makes sure only the validator can approve\r\n            _tokenIds.increment();\r\n            uint256 newNftTokenId = _tokenIds.current();\r\n            _mint(_tmpinventorAddr[tmptokenId], newNftTokenId);\r\n\r\n            _tokenTitles[newNftTokenId] = _tmptokenTitles[tmptokenId];\r\n            _tokenSHAs[newNftTokenId] = _tmptokenSHAs[tmptokenId];\r\n            _tokenURIs[newNftTokenId] =  _tmptokenURIs[tmptokenId];\r\n            _inventorNames[newNftTokenId] = _tmpinventorNames[tmptokenId];\r\n            _inventionDate[newNftTokenId] = _tmpinventionDate[tmptokenId];\r\n            _inventorAddr[newNftTokenId] = _tmpinventorAddr[tmptokenId];\r\n            _validatorAddr[newNftTokenId] = msg.sender;\r\n            _delegateAddr[newNftTokenId] = msg.sender;\r\n\r\n            _tmptokenNotHandled[tmptokenId] = false;\r\n            return true;\r\n        }\r\n        else{\r\n            return false;\r\n        }\r\n      }\r\n\r\n      //denys the patent\r\n      function denyPatent(uint256 tmptokenId) external returns (bool) {\r\n          if((_tmpvalidatorAddr[tmptokenId] == msg.sender)&&_tmptokenNotHandled[tmptokenId] ){//makes sure only the validator can deny\r\n              _tmptokenNotHandled[tmptokenId] = false;\r\n              return true;\r\n          }\r\n          else{\r\n              return false;\r\n          }\r\n        }\r\n\r\n//************************ Handling Created Patents******************************/\r\n    //returns the number of patents\r\n    function patentCap() public view returns (uint256) {\r\n      return _tokenIds.current();\r\n    }\r\n\r\n      //returns the SHA 256 hash of the file holding the patent\r\n    function tokenURI(uint256 tokenId) public view virtual override returns (string memory) {\r\n        require(_exists(tokenId), \"ERC721Metadata:  query for nonexistent token\");\r\n        return _tokenURIs[tokenId];\r\n\r\n      }\r\n\r\n      //returns the inventor of the patent\r\n   function tokenInventor(uint256 tokenId) public view returns (string memory) {\r\n      require(_exists(tokenId), \"ERC721Metadata: URI query for nonexistent token\");\r\n      return _inventorNames[tokenId];\r\n    }\r\n\r\n    //returns the date of creation of the patent\r\n  function tokenDate(uint256 tokenId) public view returns (string memory) {\r\n    require(_exists(tokenId), \"ERC721Metadata: query for nonexistent token\");\r\n    return _inventionDate[tokenId];\r\n  }\r\n\r\n  //returns the SHA256 of the patent\r\n  function tokenSHA(uint256 tokenId) public view returns (uint256) {\r\n    require(_exists(tokenId), \"ERC721Metadata: query for nonexistent token\");\r\n    return _tokenSHAs[tokenId];\r\n  }\r\n\r\n    //returns the title of the patent\r\n  function tokenTitle(uint256 tokenId) public view returns (string memory) {\r\n    require(_exists(tokenId), \"ERC721Metadata: query for nonexistent token\");\r\n    return _tokenTitles[tokenId];\r\n  }\r\n\r\n\r\n\r\n  //returns the delegate of the patent\r\n  function currentDelegate(uint256 tokenId) public view returns (address delegate) {\r\n    require(_exists(tokenId), \"ERC721Metadata: query for nonexistent token\");\r\n\r\n    return _delegateAddr[tokenId];\r\n  }\r\n\r\n  //changes the delegate of the patent\r\n  function changeCurrentDelegate(uint256 tokenId, address new_delegate) public  returns (bool success) {\r\n    require(_exists(tokenId), \"ERC721Metadata: query for nonexistent token\");\r\n    if(ownerOf(tokenId) == msg.sender){\r\n       _delegateAddr[tokenId] =new_delegate;\r\n      return true;\r\n    }\r\n    else{\r\n      return false;\r\n    }\r\n  }\r\n\r\n\r\n\r\n\r\n\r\n  //makes a list of all the patent Ids a person owns\r\n   function owns() public view returns (string memory) {\r\n    uint256 _j = 1;\r\n    uint current_tmp = _tokenIds.current();\r\n\r\n    string memory message = \"[ \";\r\n\r\n    for(_j = 1; _j <= current_tmp; _j++){\r\n      if(ownerOf(_j) == msg.sender){\r\n           message = appendUintToString( message, _j);\r\n           message = string(abi.encodePacked(message, \" \"));\r\n      }\r\n    }\r\n    message = string(abi.encodePacked(message, \"]\"));\r\n    return message;\r\n\r\n  }\r\n\r\n\r\n\r\n\r\n//initializes a trade\r\n function trade_init(uint256 tokenId) public payable returns (bool) {\r\n   if(msg.value > _buyingPrice[tokenId]){//if a higher bid\r\n       trade_cancel(tokenId);\r\n      _buyingPrice[tokenId] = msg.value;\r\n      _buyerAddr[tokenId] = msg.sender;\r\n      return true;\r\n   }\r\n   else{//else rebate the money\r\n      payable(msg.sender).transfer(msg.value);\r\n      return false;\r\n   }\r\n}\r\n\r\n//view a trade price\r\n function current_trade_offer(uint256 tokenId) public view returns (uint256) {\r\n   require(_exists(tokenId), \"ERC721Metadata: query for nonexistent token\");\r\n   return _buyingPrice[tokenId];\r\n }\r\n\r\n\r\n//confirm a trade\r\n function trade_confirm(uint256 tokenId, uint256 money) public returns (bool) {\r\n   if(ownerOf(tokenId) == msg.sender){\r\n     if(money <= _buyingPrice[tokenId]){\r\n        uint256 tmp = _buyingPrice[tokenId];\r\n        // Buying Price to 0\r\n        _buyingPrice[tokenId] = 0;\r\n        payable(msg.sender).transfer(tmp*4/5);\r\n        payable(_inventorAddr[tokenId]).transfer(tmp/10);\r\n        payable(_delegateAddr[tokenId]).transfer(tmp/10);\r\n\r\n        transferFrom(msg.sender, _buyerAddr[tokenId], tokenId);\r\n\r\n        /* emit Transfer(msg.sender, _buyerAddr[tokenId], tokenId); */\r\n        // Buyer Address to 0\r\n        _buyerAddr[tokenId] = address(0);\r\n        return true;\r\n     }\r\n   }\r\n   return false;\r\n}\r\n\r\n//cancel a trade\r\n function trade_cancel(uint256 tokenId) public returns (bool) {\r\n   uint256 tmp = _buyingPrice[tokenId];\r\n   // Buying Price to 0\r\n   _buyingPrice[tokenId] = 0;\r\n\r\n   payable(_buyerAddr[tokenId]).transfer(tmp);\r\n\r\n   // Buyer Address to 0\r\n   _buyerAddr[tokenId] = address(0);\r\n   return true;\r\n}\r\n\r\n}\r\n",
  "sourcePath": "C:/Users/thwai/Desktop/Crypto Project/DPT/DPT/contracts/DPT.sol",
  "compiler": {
    "name": "solc",
    "version": "0.8.4+commit.c7e474f2.Emscripten.clang"
  },
  "schemaVersion": "3.3.4",
  "updatedAt": "2021-04-27T01:02:46.600Z",
  "devdoc": {
    "kind": "dev",
    "methods": {
      "approve(address,uint256)": {
        "details": "See {IERC721-approve}."
      },
      "balanceOf(address)": {
        "details": "See {IERC721-balanceOf}."
      },
      "getApproved(uint256)": {
        "details": "See {IERC721-getApproved}."
      },
      "isApprovedForAll(address,address)": {
        "details": "See {IERC721-isApprovedForAll}."
      },
      "name()": {
        "details": "See {IERC721Metadata-name}."
      },
      "owner()": {
        "details": "Returns the address of the current owner."
      },
      "ownerOf(uint256)": {
        "details": "See {IERC721-ownerOf}."
      },
      "renounceOwnership()": {
        "details": "Leaves the contract without owner. It will not be possible to call `onlyOwner` functions anymore. Can only be called by the current owner. NOTE: Renouncing ownership will leave the contract without an owner, thereby removing any functionality that is only available to the owner."
      },
      "safeTransferFrom(address,address,uint256)": {
        "details": "See {IERC721-safeTransferFrom}."
      },
      "safeTransferFrom(address,address,uint256,bytes)": {
        "details": "See {IERC721-safeTransferFrom}."
      },
      "setApprovalForAll(address,bool)": {
        "details": "See {IERC721-setApprovalForAll}."
      },
      "supportsInterface(bytes4)": {
        "details": "See {IERC165-supportsInterface}."
      },
      "symbol()": {
        "details": "See {IERC721Metadata-symbol}."
      },
      "tokenURI(uint256)": {
        "details": "See {IERC721Metadata-tokenURI}."
      },
      "transferFrom(address,address,uint256)": {
        "details": "See {IERC721-transferFrom}."
      },
      "transferOwnership(address)": {
        "details": "Transfers ownership of the contract to a new account (`newOwner`). Can only be called by the current owner."
      }
    },
    "version": 1
  },
  "userdoc": {
    "kind": "user",
    "methods": {},
    "version": 1
  }
}